{
  "_format": "hh-sol-artifact-1",
  "contractName": "WarrantyNFT",
  "sourceName": "contracts/WarrantyNFT.sol",
  "abi": [
    {
      "anonymous": false,
      "inputs": [
        {
          "indexed": true,
          "internalType": "address",
          "name": "_creator",
          "type": "address"
        },
        {
          "indexed": true,
          "internalType": "address",
          "name": "_approved",
          "type": "address"
        },
        {
          "indexed": true,
          "internalType": "uint256",
          "name": "_tokenId",
          "type": "uint256"
        }
      ],
      "name": "Approval",
      "type": "event"
    },
    {
      "anonymous": false,
      "inputs": [
        {
          "indexed": true,
          "internalType": "uint256",
          "name": "_tokenId",
          "type": "uint256"
        },
        {
          "indexed": false,
          "internalType": "string",
          "name": "uri",
          "type": "string"
        }
      ],
      "name": "ItemRepair",
      "type": "event"
    },
    {
      "anonymous": false,
      "inputs": [
        {
          "indexed": true,
          "internalType": "uint256",
          "name": "_replacedTokenId",
          "type": "uint256"
        },
        {
          "indexed": true,
          "internalType": "uint256",
          "name": "_newTokenId",
          "type": "uint256"
        }
      ],
      "name": "ItemReplace",
      "type": "event"
    },
    {
      "anonymous": false,
      "inputs": [
        {
          "indexed": true,
          "internalType": "address",
          "name": "_from",
          "type": "address"
        },
        {
          "indexed": true,
          "internalType": "address",
          "name": "_to",
          "type": "address"
        },
        {
          "indexed": true,
          "internalType": "uint256",
          "name": "_tokenId",
          "type": "uint256"
        }
      ],
      "name": "Transfer",
      "type": "event"
    },
    {
      "inputs": [
        {
          "internalType": "address",
          "name": "_approved",
          "type": "address"
        },
        {
          "internalType": "uint256",
          "name": "_tokenId",
          "type": "uint256"
        }
      ],
      "name": "approve",
      "outputs": [],
      "stateMutability": "nonpayable",
      "type": "function"
    },
    {
      "inputs": [
        {
          "internalType": "address",
          "name": "",
          "type": "address"
        },
        {
          "internalType": "uint256",
          "name": "",
          "type": "uint256"
        }
      ],
      "name": "creatorToIds",
      "outputs": [
        {
          "internalType": "uint256",
          "name": "",
          "type": "uint256"
        }
      ],
      "stateMutability": "view",
      "type": "function"
    },
    {
      "inputs": [
        {
          "internalType": "uint256",
          "name": "_tokenId",
          "type": "uint256"
        }
      ],
      "name": "decay",
      "outputs": [],
      "stateMutability": "nonpayable",
      "type": "function"
    },
    {
      "inputs": [
        {
          "internalType": "address",
          "name": "_creator",
          "type": "address"
        }
      ],
      "name": "getCreatorIds",
      "outputs": [
        {
          "internalType": "uint256[]",
          "name": "",
          "type": "uint256[]"
        }
      ],
      "stateMutability": "view",
      "type": "function"
    },
    {
      "inputs": [
        {
          "internalType": "address",
          "name": "_owner",
          "type": "address"
        }
      ],
      "name": "getOwnerIds",
      "outputs": [
        {
          "internalType": "uint256[]",
          "name": "",
          "type": "uint256[]"
        }
      ],
      "stateMutability": "view",
      "type": "function"
    },
    {
      "inputs": [
        {
          "internalType": "uint256",
          "name": "",
          "type": "uint256"
        }
      ],
      "name": "idToApproved",
      "outputs": [
        {
          "internalType": "address",
          "name": "",
          "type": "address"
        }
      ],
      "stateMutability": "view",
      "type": "function"
    },
    {
      "inputs": [
        {
          "internalType": "uint256",
          "name": "",
          "type": "uint256"
        }
      ],
      "name": "idToWarranty",
      "outputs": [
        {
          "internalType": "address",
          "name": "creator",
          "type": "address"
        },
        {
          "internalType": "address",
          "name": "currentOwner",
          "type": "address"
        },
        {
          "internalType": "string",
          "name": "itemSerialNumber",
          "type": "string"
        },
        {
          "internalType": "string",
          "name": "uri",
          "type": "string"
        },
        {
          "internalType": "bool",
          "name": "unlimitedTransfers",
          "type": "bool"
        },
        {
          "internalType": "uint256",
          "name": "numOfTransfersAvailable",
          "type": "uint256"
        },
        {
          "internalType": "uint256",
          "name": "period",
          "type": "uint256"
        },
        {
          "internalType": "uint256",
          "name": "timestamp",
          "type": "uint256"
        }
      ],
      "stateMutability": "view",
      "type": "function"
    },
    {
      "inputs": [
        {
          "internalType": "address",
          "name": "_address",
          "type": "address"
        },
        {
          "internalType": "uint256",
          "name": "_tokenId",
          "type": "uint256"
        }
      ],
      "name": "isApprovedAddress",
      "outputs": [
        {
          "internalType": "bool",
          "name": "",
          "type": "bool"
        }
      ],
      "stateMutability": "view",
      "type": "function"
    },
    {
      "inputs": [
        {
          "internalType": "uint256",
          "name": "_tokenId",
          "type": "uint256"
        }
      ],
      "name": "isValidWarranty",
      "outputs": [
        {
          "internalType": "bool",
          "name": "",
          "type": "bool"
        }
      ],
      "stateMutability": "view",
      "type": "function"
    },
    {
      "inputs": [
        {
          "internalType": "uint256",
          "name": "_tokenId",
          "type": "uint256"
        },
        {
          "internalType": "string",
          "name": "_uri",
          "type": "string"
        }
      ],
      "name": "itemRepair",
      "outputs": [],
      "stateMutability": "nonpayable",
      "type": "function"
    },
    {
      "inputs": [
        {
          "internalType": "uint256",
          "name": "_prevId",
          "type": "uint256"
        },
        {
          "internalType": "uint256",
          "name": "_newId",
          "type": "uint256"
        }
      ],
      "name": "itemReplace",
      "outputs": [],
      "stateMutability": "nonpayable",
      "type": "function"
    },
    {
      "inputs": [
        {
          "internalType": "string",
          "name": "_itemSerialNumber",
          "type": "string"
        },
        {
          "internalType": "string",
          "name": "_uri",
          "type": "string"
        },
        {
          "internalType": "bool",
          "name": "_unlimitedTransfers",
          "type": "bool"
        },
        {
          "internalType": "uint256",
          "name": "_numOfTransfers",
          "type": "uint256"
        },
        {
          "internalType": "uint256",
          "name": "_period",
          "type": "uint256"
        }
      ],
      "name": "mint",
      "outputs": [
        {
          "internalType": "uint256",
          "name": "",
          "type": "uint256"
        }
      ],
      "stateMutability": "nonpayable",
      "type": "function"
    },
    {
      "inputs": [
        {
          "components": [
            {
              "internalType": "string",
              "name": "itemSerialNumber",
              "type": "string"
            },
            {
              "internalType": "string",
              "name": "uri",
              "type": "string"
            },
            {
              "internalType": "bool",
              "name": "unlimitedTransfers",
              "type": "bool"
            },
            {
              "internalType": "uint256",
              "name": "numOfTransfers",
              "type": "uint256"
            },
            {
              "internalType": "uint256",
              "name": "period",
              "type": "uint256"
            }
          ],
          "internalType": "struct WarrantyNFT.mintInput[]",
          "name": "input",
          "type": "tuple[]"
        }
      ],
      "name": "multipleMint",
      "outputs": [],
      "stateMutability": "nonpayable",
      "type": "function"
    },
    {
      "inputs": [],
      "name": "name",
      "outputs": [
        {
          "internalType": "string",
          "name": "",
          "type": "string"
        }
      ],
      "stateMutability": "view",
      "type": "function"
    },
    {
      "inputs": [
        {
          "internalType": "address",
          "name": "",
          "type": "address"
        },
        {
          "internalType": "uint256",
          "name": "",
          "type": "uint256"
        }
      ],
      "name": "ownerToIds",
      "outputs": [
        {
          "internalType": "uint256",
          "name": "",
          "type": "uint256"
        }
      ],
      "stateMutability": "view",
      "type": "function"
    },
    {
      "inputs": [
        {
          "internalType": "uint256",
          "name": "_tokenId",
          "type": "uint256"
        },
        {
          "internalType": "uint256",
          "name": "_period",
          "type": "uint256"
        }
      ],
      "name": "setPeriod",
      "outputs": [],
      "stateMutability": "nonpayable",
      "type": "function"
    },
    {
      "inputs": [
        {
          "internalType": "uint256",
          "name": "_tokenId",
          "type": "uint256"
        }
      ],
      "name": "setTimestamp",
      "outputs": [],
      "stateMutability": "nonpayable",
      "type": "function"
    },
    {
      "inputs": [
        {
          "internalType": "uint256",
          "name": "_tokenId",
          "type": "uint256"
        },
        {
          "internalType": "uint256",
          "name": "_transfers",
          "type": "uint256"
        }
      ],
      "name": "setTransfersAvailable",
      "outputs": [],
      "stateMutability": "nonpayable",
      "type": "function"
    },
    {
      "inputs": [],
      "name": "symbol",
      "outputs": [
        {
          "internalType": "string",
          "name": "",
          "type": "string"
        }
      ],
      "stateMutability": "view",
      "type": "function"
    },
    {
      "inputs": [
        {
          "internalType": "address",
          "name": "_to",
          "type": "address"
        },
        {
          "internalType": "uint256",
          "name": "_tokenId",
          "type": "uint256"
        }
      ],
      "name": "transferTo",
      "outputs": [],
      "stateMutability": "nonpayable",
      "type": "function"
    }
  ],
  "bytecode": "0x60806040526040518060400160405280600c81526020017f57617272616e74792d4e465400000000000000000000000000000000000000008152506001908051906020019062000051929190620000b4565b506040518060400160405280600581526020017f5761724e54000000000000000000000000000000000000000000000000000000815250600290805190602001906200009f929190620000b4565b50348015620000ad57600080fd5b50620001c9565b828054620000c29062000193565b90600052602060002090601f016020900481019282620000e6576000855562000132565b82601f106200010157805160ff191683800117855562000132565b8280016001018555821562000132579182015b828111156200013157825182559160200191906001019062000114565b5b50905062000141919062000145565b5090565b5b808211156200016057600081600090555060010162000146565b5090565b7f4e487b7100000000000000000000000000000000000000000000000000000000600052602260045260246000fd5b60006002820490506001821680620001ac57607f821691505b60208210811415620001c357620001c262000164565b5b50919050565b612e8d80620001d96000396000f3fe608060405234801561001057600080fd5b506004361061012c5760003560e01c80634e462ae2116100ad578063a0a2b57311610071578063a0a2b57314610344578063b088d74b14610360578063cc852c4314610390578063d6b1be0c146103c0578063feb3d3d6146103f05761012c565b80634e462ae21461027a5780635e0c630e146102965780638486bb8f146102c657806395d89b41146102f65780639e33698f146103145761012c565b80631c2dece2116100f45780631c2dece2146101bf5780632c1310ff146101f65780632caed4a0146102265780632ccb1b3014610242578063447658181461025e5761012c565b806303c5b1dc1461013157806306fdde031461014d5780630842547c1461016b578063095ea7b3146101875780630eb738ed146101a3575b600080fd5b61014b60048036038101906101469190612136565b610420565b005b6101556104f6565b604051610162919061220f565b60405180910390f35b61018560048036038101906101809190612231565b610588565b005b6101a1600480360381019061019c91906122bc565b6107e3565b005b6101bd60048036038101906101b89190612136565b61093a565b005b6101d960048036038101906101d49190612231565b6109ff565b6040516101ed989796959493929190612335565b60405180910390f35b610210600480360381019061020b91906123c1565b610ba4565b60405161021d91906124ac565b60405180910390f35b610240600480360381019061023b9190612533565b610c3b565b005b61025c600480360381019061025791906122bc565b610d31565b005b61027860048036038101906102739190612136565b610fcc565b005b610294600480360381019061028f91906125e9565b611292565b005b6102b060048036038101906102ab9190612792565b611438565b6040516102bd9190612845565b60405180910390f35b6102e060048036038101906102db91906122bc565b6116a7565b6040516102ed9190612860565b60405180910390f35b6102fe611713565b60405161030b919061220f565b60405180910390f35b61032e60048036038101906103299190612231565b6117a5565b60405161033b9190612860565b60405180910390f35b61035e60048036038101906103599190612231565b61192a565b005b61037a60048036038101906103759190612231565b6119ff565b604051610387919061287b565b60405180910390f35b6103aa60048036038101906103a591906123c1565b611a32565b6040516103b791906124ac565b60405180910390f35b6103da60048036038101906103d591906122bc565b611ac9565b6040516103e79190612845565b60405180910390f35b61040a600480360381019061040591906122bc565b611afa565b6040516104179190612845565b60405180910390f35b816003600082815260200190815260200160002060000160009054906101000a900473ffffffffffffffffffffffffffffffffffffffff1673ffffffffffffffffffffffffffffffffffffffff163373ffffffffffffffffffffffffffffffffffffffff161480610497575061049633826116a7565b5b6104d6576040517f08c379a00000000000000000000000000000000000000000000000000000000081526004016104cd9061292e565b60405180910390fd5b816003600085815260200190815260200160002060060181905550505050565b6060600180546105059061297d565b80601f01602080910402602001604051908101604052809291908181526020018280546105319061297d565b801561057e5780601f106105535761010080835404028352916020019161057e565b820191906000526020600020905b81548152906001019060200180831161056157829003601f168201915b5050505050905090565b80600073ffffffffffffffffffffffffffffffffffffffff166003600083815260200190815260200160002060000160009054906101000a900473ffffffffffffffffffffffffffffffffffffffff1673ffffffffffffffffffffffffffffffffffffffff16141561062f576040517f08c379a0000000000000000000000000000000000000000000000000000000008152600401610626906129fb565b60405180910390fd5b816003600082815260200190815260200160002060000160009054906101000a900473ffffffffffffffffffffffffffffffffffffffff1673ffffffffffffffffffffffffffffffffffffffff163373ffffffffffffffffffffffffffffffffffffffff1614806106a657506106a533826116a7565b5b6106e5576040517f08c379a00000000000000000000000000000000000000000000000000000000081526004016106dc9061292e565b60405180910390fd5b6106ee836117a5565b156106f857600080fd5b60036000848152602001908152602001600020600080820160006101000a81549073ffffffffffffffffffffffffffffffffffffffff02191690556001820160006101000a81549073ffffffffffffffffffffffffffffffffffffffff021916905560028201600061076a9190612009565b60038201600061077a9190612009565b6004820160006101000a81549060ff021916905560058201600090556006820160009055600782016000905550506006600084815260200190815260200160002060006101000a81549073ffffffffffffffffffffffffffffffffffffffff0219169055505050565b806003600082815260200190815260200160002060000160009054906101000a900473ffffffffffffffffffffffffffffffffffffffff1673ffffffffffffffffffffffffffffffffffffffff163373ffffffffffffffffffffffffffffffffffffffff1614610888576040517f08c379a000000000000000000000000000000000000000000000000000000000815260040161087f90612a8d565b60405180910390fd5b826006600084815260200190815260200160002060006101000a81548173ffffffffffffffffffffffffffffffffffffffff021916908373ffffffffffffffffffffffffffffffffffffffff160217905550818373ffffffffffffffffffffffffffffffffffffffff163373ffffffffffffffffffffffffffffffffffffffff167f8c5be1e5ebec7d5bd14f71427d1e84f3dd0314c0f7b2291e5b200ac8c7c3b92560405160405180910390a4505050565b816003600082815260200190815260200160002060000160009054906101000a900473ffffffffffffffffffffffffffffffffffffffff1673ffffffffffffffffffffffffffffffffffffffff163373ffffffffffffffffffffffffffffffffffffffff16146109df576040517f08c379a00000000000000000000000000000000000000000000000000000000081526004016109d690612a8d565b60405180910390fd5b816003600085815260200190815260200160002060050181905550505050565b60036020528060005260406000206000915090508060000160009054906101000a900473ffffffffffffffffffffffffffffffffffffffff16908060010160009054906101000a900473ffffffffffffffffffffffffffffffffffffffff1690806002018054610a6e9061297d565b80601f0160208091040260200160405190810160405280929190818152602001828054610a9a9061297d565b8015610ae75780601f10610abc57610100808354040283529160200191610ae7565b820191906000526020600020905b815481529060010190602001808311610aca57829003601f168201915b505050505090806003018054610afc9061297d565b80601f0160208091040260200160405190810160405280929190818152602001828054610b289061297d565b8015610b755780601f10610b4a57610100808354040283529160200191610b75565b820191906000526020600020905b815481529060010190602001808311610b5857829003601f168201915b5050505050908060040160009054906101000a900460ff16908060050154908060060154908060070154905088565b6060600560008373ffffffffffffffffffffffffffffffffffffffff1673ffffffffffffffffffffffffffffffffffffffff168152602001908152602001600020805480602002602001604051908101604052809291908181526020018280548015610c2f57602002820191906000526020600020905b815481526020019060010190808311610c1b575b50505050509050919050565b826003600082815260200190815260200160002060000160009054906101000a900473ffffffffffffffffffffffffffffffffffffffff1673ffffffffffffffffffffffffffffffffffffffff163373ffffffffffffffffffffffffffffffffffffffff161480610cb25750610cb133826116a7565b5b610cf1576040517f08c379a0000000000000000000000000000000000000000000000000000000008152600401610ce89061292e565b60405180910390fd5b837f130210819bdd27875d348991cd07972acdce10517496cf9b4e4cf302cd4fcb038484604051610d23929190612ada565b60405180910390a250505050565b6003600082815260200190815260200160002060000160009054906101000a900473ffffffffffffffffffffffffffffffffffffffff1673ffffffffffffffffffffffffffffffffffffffff163373ffffffffffffffffffffffffffffffffffffffff161480610da75750610da633826116a7565b5b15610e7b57600073ffffffffffffffffffffffffffffffffffffffff166003600083815260200190815260200160002060010160009054906101000a900473ffffffffffffffffffffffffffffffffffffffff1673ffffffffffffffffffffffffffffffffffffffff1614610e51576040517f08c379a0000000000000000000000000000000000000000000000000000000008152600401610e4890612b4a565b60405180910390fd5b426003600083815260200190815260200160002060070181905550610e768282611b2b565b610fc8565b3373ffffffffffffffffffffffffffffffffffffffff166003600083815260200190815260200160002060010160009054906101000a900473ffffffffffffffffffffffffffffffffffffffff1673ffffffffffffffffffffffffffffffffffffffff161415610fc7576003600082815260200190815260200160002060040160009054906101000a900460ff1615610f1d57610f188282611b2b565b610fc6565b600160036000838152602001908152602001600020600501541015610f77576040517f08c379a0000000000000000000000000000000000000000000000000000000008152600401610f6e90612bb6565b60405180910390fd5b610fa160016003600084815260200190815260200160002060050154611fa390919063ffffffff16565b6003600083815260200190815260200160002060050181905550610fc58282611b2b565b5b5b5b5050565b816003600082815260200190815260200160002060000160009054906101000a900473ffffffffffffffffffffffffffffffffffffffff1673ffffffffffffffffffffffffffffffffffffffff163373ffffffffffffffffffffffffffffffffffffffff161480611043575061104233826116a7565b5b611082576040517f08c379a00000000000000000000000000000000000000000000000000000000081526004016110799061292e565b60405180910390fd5b816003600082815260200190815260200160002060000160009054906101000a900473ffffffffffffffffffffffffffffffffffffffff1673ffffffffffffffffffffffffffffffffffffffff163373ffffffffffffffffffffffffffffffffffffffff1614806110f957506110f833826116a7565b5b611138576040517f08c379a000000000000000000000000000000000000000000000000000000000815260040161112f9061292e565b60405180910390fd5b6111786003600086815260200190815260200160002060010160009054906101000a900473ffffffffffffffffffffffffffffffffffffffff1684610d31565b60036000858152602001908152602001600020600080820160006101000a81549073ffffffffffffffffffffffffffffffffffffffff02191690556001820160006101000a81549073ffffffffffffffffffffffffffffffffffffffff02191690556002820160006111ea9190612009565b6003820160006111fa9190612009565b6004820160006101000a81549060ff021916905560058201600090556006820160009055600782016000905550506006600085815260200190815260200160002060006101000a81549073ffffffffffffffffffffffffffffffffffffffff021916905582847fd2ad01d2025b1b609a72f43b1bd477f55744e832b763fc44f367a5d9c5a9cfb060405160405180910390a350505050565b60005b828290508110156114335761141f8383838181106112b6576112b5612bd6565b5b90506020028101906112c89190612c14565b80600001906112d79190612c3c565b8080601f016020809104026020016040519081016040528093929190818152602001838380828437600081840152601f19601f8201169050808301925050505050505084848481811061132d5761132c612bd6565b5b905060200281019061133f9190612c14565b806020019061134e9190612c3c565b8080601f016020809104026020016040519081016040528093929190818152602001838380828437600081840152601f19601f820116905080830192505050505050508585858181106113a4576113a3612bd6565b5b90506020028101906113b69190612c14565b60400160208101906113c89190612c9f565b8686868181106113db576113da612bd6565b5b90506020028101906113ed9190612c14565b6060013587878781811061140457611403612bd6565b5b90506020028101906114169190612c14565b60800135611438565b50808061142b90612cfb565b915050611295565b505050565b60006114446000611fb9565b60006114506000611fcf565b90506040518061010001604052803373ffffffffffffffffffffffffffffffffffffffff168152602001600073ffffffffffffffffffffffffffffffffffffffff168152602001888152602001878152602001861515815260200185815260200184815260200160008152506003600083815260200190815260200160002060008201518160000160006101000a81548173ffffffffffffffffffffffffffffffffffffffff021916908373ffffffffffffffffffffffffffffffffffffffff16021790555060208201518160010160006101000a81548173ffffffffffffffffffffffffffffffffffffffff021916908373ffffffffffffffffffffffffffffffffffffffff1602179055506040820151816002019080519060200190611579929190612049565b506060820151816003019080519060200190611596929190612049565b5060808201518160040160006101000a81548160ff02191690831515021790555060a0820151816005015560c0820151816006015560e08201518160070155905050600560003373ffffffffffffffffffffffffffffffffffffffff1673ffffffffffffffffffffffffffffffffffffffff168152602001908152602001600020819080600181540180825580915050600190039060005260206000200160009091909190915055803373ffffffffffffffffffffffffffffffffffffffff16600073ffffffffffffffffffffffffffffffffffffffff167fddf252ad1be2c89b69c2b068fc378daa952ba7f163c4a11628f55a4df523b3ef60405160405180910390a48091505095945050505050565b60006006600083815260200190815260200160002060009054906101000a900473ffffffffffffffffffffffffffffffffffffffff1673ffffffffffffffffffffffffffffffffffffffff168373ffffffffffffffffffffffffffffffffffffffff1614905092915050565b6060600280546117229061297d565b80601f016020809104026020016040519081016040528092919081815260200182805461174e9061297d565b801561179b5780601f106117705761010080835404028352916020019161179b565b820191906000526020600020905b81548152906001019060200180831161177e57829003601f168201915b5050505050905090565b600081600073ffffffffffffffffffffffffffffffffffffffff166003600083815260200190815260200160002060000160009054906101000a900473ffffffffffffffffffffffffffffffffffffffff1673ffffffffffffffffffffffffffffffffffffffff16141561184e576040517f08c379a0000000000000000000000000000000000000000000000000000000008152600401611845906129fb565b60405180910390fd5b600073ffffffffffffffffffffffffffffffffffffffff166003600085815260200190815260200160002060010160009054906101000a900473ffffffffffffffffffffffffffffffffffffffff1673ffffffffffffffffffffffffffffffffffffffff16148061191157504261190f6118ea620151806003600088815260200190815260200160002060060154611fdd90919063ffffffff16565b6003600087815260200190815260200160002060070154611ff390919063ffffffff16565b115b1561191f5760019150611924565b600091505b50919050565b806003600082815260200190815260200160002060000160009054906101000a900473ffffffffffffffffffffffffffffffffffffffff1673ffffffffffffffffffffffffffffffffffffffff163373ffffffffffffffffffffffffffffffffffffffff1614806119a157506119a033826116a7565b5b6119e0576040517f08c379a00000000000000000000000000000000000000000000000000000000081526004016119d79061292e565b60405180910390fd5b4260036000848152602001908152602001600020600701819055505050565b60066020528060005260406000206000915054906101000a900473ffffffffffffffffffffffffffffffffffffffff1681565b6060600460008373ffffffffffffffffffffffffffffffffffffffff1673ffffffffffffffffffffffffffffffffffffffff168152602001908152602001600020805480602002602001604051908101604052809291908181526020018280548015611abd57602002820191906000526020600020905b815481526020019060010190808311611aa9575b50505050509050919050565b60056020528160005260406000208181548110611ae557600080fd5b90600052602060002001600091509150505481565b60046020528160005260406000208181548110611b1657600080fd5b90600052602060002001600091509150505481565b80600073ffffffffffffffffffffffffffffffffffffffff166003600083815260200190815260200160002060000160009054906101000a900473ffffffffffffffffffffffffffffffffffffffff1673ffffffffffffffffffffffffffffffffffffffff161415611bd2576040517f08c379a0000000000000000000000000000000000000000000000000000000008152600401611bc9906129fb565b60405180910390fd5b826003600084815260200190815260200160002060010160006101000a81548173ffffffffffffffffffffffffffffffffffffffff021916908373ffffffffffffffffffffffffffffffffffffffff160217905550611c3133836116a7565b158015611ca057506003600083815260200190815260200160002060000160009054906101000a900473ffffffffffffffffffffffffffffffffffffffff1673ffffffffffffffffffffffffffffffffffffffff163373ffffffffffffffffffffffffffffffffffffffff1614155b15611edd5760005b600460003373ffffffffffffffffffffffffffffffffffffffff1673ffffffffffffffffffffffffffffffffffffffff16815260200190815260200160002080549050811015611edb5782600460003373ffffffffffffffffffffffffffffffffffffffff1673ffffffffffffffffffffffffffffffffffffffff1681526020019081526020016000208281548110611d4457611d43612bd6565b5b90600052602060002001541415611ec857600460003373ffffffffffffffffffffffffffffffffffffffff1673ffffffffffffffffffffffffffffffffffffffff1681526020019081526020016000206001600460003373ffffffffffffffffffffffffffffffffffffffff1673ffffffffffffffffffffffffffffffffffffffff16815260200190815260200160002080549050611de39190612d44565b81548110611df457611df3612bd6565b5b9060005260206000200154600460003373ffffffffffffffffffffffffffffffffffffffff1673ffffffffffffffffffffffffffffffffffffffff1681526020019081526020016000208281548110611e5057611e4f612bd6565b5b9060005260206000200181905550600460003373ffffffffffffffffffffffffffffffffffffffff1673ffffffffffffffffffffffffffffffffffffffff168152602001908152602001600020805480611ead57611eac612d78565b5b60019003818190600052602060002001600090559055611edb565b8080611ed390612cfb565b915050611ca8565b505b600460008473ffffffffffffffffffffffffffffffffffffffff1673ffffffffffffffffffffffffffffffffffffffff168152602001908152602001600020829080600181540180825580915050600190039060005260206000200160009091909190915055818373ffffffffffffffffffffffffffffffffffffffff163373ffffffffffffffffffffffffffffffffffffffff167fddf252ad1be2c89b69c2b068fc378daa952ba7f163c4a11628f55a4df523b3ef60405160405180910390a4505050565b60008183611fb19190612d44565b905092915050565b6001816000016000828254019250508190555050565b600081600001549050919050565b60008183611feb9190612da7565b905092915050565b600081836120019190612e01565b905092915050565b5080546120159061297d565b6000825580601f106120275750612046565b601f01602090049060005260206000209081019061204591906120cf565b5b50565b8280546120559061297d565b90600052602060002090601f01602090048101928261207757600085556120be565b82601f1061209057805160ff19168380011785556120be565b828001600101855582156120be579182015b828111156120bd5782518255916020019190600101906120a2565b5b5090506120cb91906120cf565b5090565b5b808211156120e85760008160009055506001016120d0565b5090565b6000604051905090565b600080fd5b600080fd5b6000819050919050565b61211381612100565b811461211e57600080fd5b50565b6000813590506121308161210a565b92915050565b6000806040838503121561214d5761214c6120f6565b5b600061215b85828601612121565b925050602061216c85828601612121565b9150509250929050565b600081519050919050565b600082825260208201905092915050565b60005b838110156121b0578082015181840152602081019050612195565b838111156121bf576000848401525b50505050565b6000601f19601f8301169050919050565b60006121e182612176565b6121eb8185612181565b93506121fb818560208601612192565b612204816121c5565b840191505092915050565b6000602082019050818103600083015261222981846121d6565b905092915050565b600060208284031215612247576122466120f6565b5b600061225584828501612121565b91505092915050565b600073ffffffffffffffffffffffffffffffffffffffff82169050919050565b60006122898261225e565b9050919050565b6122998161227e565b81146122a457600080fd5b50565b6000813590506122b681612290565b92915050565b600080604083850312156122d3576122d26120f6565b5b60006122e1858286016122a7565b92505060206122f285828601612121565b9150509250929050565b6123058161227e565b82525050565b60008115159050919050565b6123208161230b565b82525050565b61232f81612100565b82525050565b60006101008201905061234b600083018b6122fc565b612358602083018a6122fc565b818103604083015261236a81896121d6565b9050818103606083015261237e81886121d6565b905061238d6080830187612317565b61239a60a0830186612326565b6123a760c0830185612326565b6123b460e0830184612326565b9998505050505050505050565b6000602082840312156123d7576123d66120f6565b5b60006123e5848285016122a7565b91505092915050565b600081519050919050565b600082825260208201905092915050565b6000819050602082019050919050565b61242381612100565b82525050565b6000612435838361241a565b60208301905092915050565b6000602082019050919050565b6000612459826123ee565b61246381856123f9565b935061246e8361240a565b8060005b8381101561249f5781516124868882612429565b975061249183612441565b925050600181019050612472565b5085935050505092915050565b600060208201905081810360008301526124c6818461244e565b905092915050565b600080fd5b600080fd5b600080fd5b60008083601f8401126124f3576124f26124ce565b5b8235905067ffffffffffffffff8111156125105761250f6124d3565b5b60208301915083600182028301111561252c5761252b6124d8565b5b9250929050565b60008060006040848603121561254c5761254b6120f6565b5b600061255a86828701612121565b935050602084013567ffffffffffffffff81111561257b5761257a6120fb565b5b612587868287016124dd565b92509250509250925092565b60008083601f8401126125a9576125a86124ce565b5b8235905067ffffffffffffffff8111156125c6576125c56124d3565b5b6020830191508360208202830111156125e2576125e16124d8565b5b9250929050565b60008060208385031215612600576125ff6120f6565b5b600083013567ffffffffffffffff81111561261e5761261d6120fb565b5b61262a85828601612593565b92509250509250929050565b600080fd5b7f4e487b7100000000000000000000000000000000000000000000000000000000600052604160045260246000fd5b612673826121c5565b810181811067ffffffffffffffff821117156126925761269161263b565b5b80604052505050565b60006126a56120ec565b90506126b1828261266a565b919050565b600067ffffffffffffffff8211156126d1576126d061263b565b5b6126da826121c5565b9050602081019050919050565b82818337600083830152505050565b6000612709612704846126b6565b61269b565b90508281526020810184848401111561272557612724612636565b5b6127308482856126e7565b509392505050565b600082601f83011261274d5761274c6124ce565b5b813561275d8482602086016126f6565b91505092915050565b61276f8161230b565b811461277a57600080fd5b50565b60008135905061278c81612766565b92915050565b600080600080600060a086880312156127ae576127ad6120f6565b5b600086013567ffffffffffffffff8111156127cc576127cb6120fb565b5b6127d888828901612738565b955050602086013567ffffffffffffffff8111156127f9576127f86120fb565b5b61280588828901612738565b94505060406128168882890161277d565b935050606061282788828901612121565b925050608061283888828901612121565b9150509295509295909350565b600060208201905061285a6000830184612326565b92915050565b60006020820190506128756000830184612317565b92915050565b600060208201905061289060008301846122fc565b92915050565b7f53656e646572206973206e656974686572207468652063726561746f72206e6f60008201527f742074686520617070726f766564206f6e6520666f722074686520776172726160208201527f6e74792100000000000000000000000000000000000000000000000000000000604082015250565b6000612918604483612181565b915061292382612896565b606082019050919050565b600060208201905081810360008301526129478161290b565b9050919050565b7f4e487b7100000000000000000000000000000000000000000000000000000000600052602260045260246000fd5b6000600282049050600182168061299557607f821691505b602082108114156129a9576129a861294e565b5b50919050565b7f546f6b656e4964206973206e6f6e2d6578697374616e74210000000000000000600082015250565b60006129e5601883612181565b91506129f0826129af565b602082019050919050565b60006020820190508181036000830152612a14816129d8565b9050919050565b7f53656e646572206973206e6f742063726561746f72206f66207468652077617260008201527f72616e7479210000000000000000000000000000000000000000000000000000602082015250565b6000612a77602683612181565b9150612a8282612a1b565b604082019050919050565b60006020820190508181036000830152612aa681612a6a565b9050919050565b6000612ab98385612181565b9350612ac68385846126e7565b612acf836121c5565b840190509392505050565b60006020820190508181036000830152612af5818486612aad565b90509392505050565b7f546f6b656e20697320616c7265616479206f776e656421000000000000000000600082015250565b6000612b34601783612181565b9150612b3f82612afe565b602082019050919050565b60006020820190508181036000830152612b6381612b27565b9050919050565b7f5472616e736665727320756e617661696c61626c652100000000000000000000600082015250565b6000612ba0601683612181565b9150612bab82612b6a565b602082019050919050565b60006020820190508181036000830152612bcf81612b93565b9050919050565b7f4e487b7100000000000000000000000000000000000000000000000000000000600052603260045260246000fd5b600080fd5b600080fd5b600080fd5b60008235600160a003833603038112612c3057612c2f612c05565b5b80830191505092915050565b60008083356001602003843603038112612c5957612c58612c05565b5b80840192508235915067ffffffffffffffff821115612c7b57612c7a612c0a565b5b602083019250600182023603831315612c9757612c96612c0f565b5b509250929050565b600060208284031215612cb557612cb46120f6565b5b6000612cc38482850161277d565b91505092915050565b7f4e487b7100000000000000000000000000000000000000000000000000000000600052601160045260246000fd5b6000612d0682612100565b91507fffffffffffffffffffffffffffffffffffffffffffffffffffffffffffffffff821415612d3957612d38612ccc565b5b600182019050919050565b6000612d4f82612100565b9150612d5a83612100565b925082821015612d6d57612d6c612ccc565b5b828203905092915050565b7f4e487b7100000000000000000000000000000000000000000000000000000000600052603160045260246000fd5b6000612db282612100565b9150612dbd83612100565b9250817fffffffffffffffffffffffffffffffffffffffffffffffffffffffffffffffff0483118215151615612df657612df5612ccc565b5b828202905092915050565b6000612e0c82612100565b9150612e1783612100565b9250827fffffffffffffffffffffffffffffffffffffffffffffffffffffffffffffffff03821115612e4c57612e4b612ccc565b5b82820190509291505056fea26469706673582212201001204c610595825cf5ca0f268407dcaa0f94b397d4574416811662c761d03664736f6c63430008090033",
  "linkReferences": {},
  "deployedLinkReferences": {}
}