{
  "_format": "hh-sol-artifact-1",
  "contractName": "WarrantyNFT",
  "sourceName": "contracts/WarrantyNFT.sol",
  "abi": [
    {
      "anonymous": false,
      "inputs": [
        {
          "indexed": true,
          "internalType": "address",
          "name": "_creator",
          "type": "address"
        },
        {
          "indexed": true,
          "internalType": "address",
          "name": "_approved",
          "type": "address"
        },
        {
          "indexed": true,
          "internalType": "uint256",
          "name": "_tokenId",
          "type": "uint256"
        }
      ],
      "name": "Approval",
      "type": "event"
    },
    {
      "anonymous": false,
      "inputs": [
        {
          "indexed": true,
          "internalType": "uint256",
          "name": "_tokenId",
          "type": "uint256"
        },
        {
          "indexed": false,
          "internalType": "string",
          "name": "uri",
          "type": "string"
        }
      ],
      "name": "ItemRepair",
      "type": "event"
    },
    {
      "anonymous": false,
      "inputs": [
        {
          "indexed": true,
          "internalType": "uint256",
          "name": "_replacedTokenId",
          "type": "uint256"
        },
        {
          "indexed": true,
          "internalType": "uint256",
          "name": "_newTokenId",
          "type": "uint256"
        }
      ],
      "name": "ItemReplace",
      "type": "event"
    },
    {
      "anonymous": false,
      "inputs": [
        {
          "indexed": true,
          "internalType": "address",
          "name": "_from",
          "type": "address"
        },
        {
          "indexed": true,
          "internalType": "address",
          "name": "_to",
          "type": "address"
        },
        {
          "indexed": true,
          "internalType": "uint256",
          "name": "_tokenId",
          "type": "uint256"
        }
      ],
      "name": "Transfer",
      "type": "event"
    },
    {
      "inputs": [
        {
          "internalType": "address",
          "name": "_approved",
          "type": "address"
        },
        {
          "internalType": "uint256",
          "name": "_tokenId",
          "type": "uint256"
        }
      ],
      "name": "approve",
      "outputs": [],
      "stateMutability": "nonpayable",
      "type": "function"
    },
    {
      "inputs": [
        {
          "internalType": "address",
          "name": "",
          "type": "address"
        },
        {
          "internalType": "uint256",
          "name": "",
          "type": "uint256"
        }
      ],
      "name": "creatorToIds",
      "outputs": [
        {
          "internalType": "uint256",
          "name": "",
          "type": "uint256"
        }
      ],
      "stateMutability": "view",
      "type": "function"
    },
    {
      "inputs": [
        {
          "internalType": "uint256",
          "name": "_tokenId",
          "type": "uint256"
        }
      ],
      "name": "decay",
      "outputs": [],
      "stateMutability": "nonpayable",
      "type": "function"
    },
    {
      "inputs": [
        {
          "internalType": "address",
          "name": "_creator",
          "type": "address"
        }
      ],
      "name": "getCreatorIds",
      "outputs": [
        {
          "internalType": "uint256[]",
          "name": "",
          "type": "uint256[]"
        }
      ],
      "stateMutability": "view",
      "type": "function"
    },
    {
      "inputs": [
        {
          "internalType": "address",
          "name": "_owner",
          "type": "address"
        }
      ],
      "name": "getOwnerIds",
      "outputs": [
        {
          "internalType": "uint256[]",
          "name": "",
          "type": "uint256[]"
        }
      ],
      "stateMutability": "view",
      "type": "function"
    },
    {
      "inputs": [
        {
          "internalType": "uint256",
          "name": "",
          "type": "uint256"
        }
      ],
      "name": "idToApproved",
      "outputs": [
        {
          "internalType": "address",
          "name": "",
          "type": "address"
        }
      ],
      "stateMutability": "view",
      "type": "function"
    },
    {
      "inputs": [
        {
          "internalType": "uint256",
          "name": "",
          "type": "uint256"
        }
      ],
      "name": "idToWarranty",
      "outputs": [
        {
          "internalType": "address",
          "name": "creator",
          "type": "address"
        },
        {
          "internalType": "address",
          "name": "currentOwner",
          "type": "address"
        },
        {
          "internalType": "string",
          "name": "itemSerialNumber",
          "type": "string"
        },
        {
          "internalType": "string",
          "name": "uri",
          "type": "string"
        },
        {
          "internalType": "bool",
          "name": "unlimitedTransfers",
          "type": "bool"
        },
        {
          "internalType": "uint256",
          "name": "numOfTransfersAvailable",
          "type": "uint256"
        },
        {
          "internalType": "uint256",
          "name": "period",
          "type": "uint256"
        },
        {
          "internalType": "uint256",
          "name": "timestamp",
          "type": "uint256"
        }
      ],
      "stateMutability": "view",
      "type": "function"
    },
    {
      "inputs": [
        {
          "internalType": "address",
          "name": "_address",
          "type": "address"
        },
        {
          "internalType": "uint256",
          "name": "_tokenId",
          "type": "uint256"
        }
      ],
      "name": "isApprovedAddress",
      "outputs": [
        {
          "internalType": "bool",
          "name": "",
          "type": "bool"
        }
      ],
      "stateMutability": "view",
      "type": "function"
    },
    {
      "inputs": [
        {
          "internalType": "uint256",
          "name": "_tokenId",
          "type": "uint256"
        }
      ],
      "name": "isValidWarranty",
      "outputs": [
        {
          "internalType": "bool",
          "name": "",
          "type": "bool"
        }
      ],
      "stateMutability": "view",
      "type": "function"
    },
    {
      "inputs": [
        {
          "internalType": "uint256",
          "name": "_tokenId",
          "type": "uint256"
        },
        {
          "internalType": "string",
          "name": "_uri",
          "type": "string"
        }
      ],
      "name": "itemRepair",
      "outputs": [],
      "stateMutability": "nonpayable",
      "type": "function"
    },
    {
      "inputs": [
        {
          "internalType": "uint256",
          "name": "_prevId",
          "type": "uint256"
        },
        {
          "internalType": "uint256",
          "name": "_newId",
          "type": "uint256"
        }
      ],
      "name": "itemReplace",
      "outputs": [],
      "stateMutability": "nonpayable",
      "type": "function"
    },
    {
      "inputs": [
        {
          "internalType": "string",
          "name": "_itemSerialNumber",
          "type": "string"
        },
        {
          "internalType": "string",
          "name": "_uri",
          "type": "string"
        },
        {
          "internalType": "bool",
          "name": "_unlimitedTransfers",
          "type": "bool"
        },
        {
          "internalType": "uint256",
          "name": "_numOfTransfers",
          "type": "uint256"
        },
        {
          "internalType": "uint256",
          "name": "_period",
          "type": "uint256"
        }
      ],
      "name": "mint",
      "outputs": [
        {
          "internalType": "uint256",
          "name": "",
          "type": "uint256"
        }
      ],
      "stateMutability": "nonpayable",
      "type": "function"
    },
    {
      "inputs": [
        {
          "components": [
            {
              "internalType": "string",
              "name": "itemSerialNumber",
              "type": "string"
            },
            {
              "internalType": "string",
              "name": "uri",
              "type": "string"
            },
            {
              "internalType": "bool",
              "name": "unlimitedTransfers",
              "type": "bool"
            },
            {
              "internalType": "uint256",
              "name": "numOfTransfers",
              "type": "uint256"
            },
            {
              "internalType": "uint256",
              "name": "period",
              "type": "uint256"
            }
          ],
          "internalType": "struct WarrantyNFT.mintInput[]",
          "name": "input",
          "type": "tuple[]"
        }
      ],
      "name": "multipleMint",
      "outputs": [],
      "stateMutability": "nonpayable",
      "type": "function"
    },
    {
      "inputs": [],
      "name": "name",
      "outputs": [
        {
          "internalType": "string",
          "name": "",
          "type": "string"
        }
      ],
      "stateMutability": "view",
      "type": "function"
    },
    {
      "inputs": [
        {
          "internalType": "address",
          "name": "",
          "type": "address"
        },
        {
          "internalType": "uint256",
          "name": "",
          "type": "uint256"
        }
      ],
      "name": "ownerToIds",
      "outputs": [
        {
          "internalType": "uint256",
          "name": "",
          "type": "uint256"
        }
      ],
      "stateMutability": "view",
      "type": "function"
    },
    {
      "inputs": [
        {
          "internalType": "uint256",
          "name": "_tokenId",
          "type": "uint256"
        },
        {
          "internalType": "uint256",
          "name": "_period",
          "type": "uint256"
        }
      ],
      "name": "setPeriod",
      "outputs": [],
      "stateMutability": "nonpayable",
      "type": "function"
    },
    {
      "inputs": [
        {
          "internalType": "uint256",
          "name": "_tokenId",
          "type": "uint256"
        }
      ],
      "name": "setTimestamp",
      "outputs": [],
      "stateMutability": "nonpayable",
      "type": "function"
    },
    {
      "inputs": [
        {
          "internalType": "uint256",
          "name": "_tokenId",
          "type": "uint256"
        },
        {
          "internalType": "uint256",
          "name": "_transfers",
          "type": "uint256"
        }
      ],
      "name": "setTransfersAvailable",
      "outputs": [],
      "stateMutability": "nonpayable",
      "type": "function"
    },
    {
      "inputs": [],
      "name": "symbol",
      "outputs": [
        {
          "internalType": "string",
          "name": "",
          "type": "string"
        }
      ],
      "stateMutability": "view",
      "type": "function"
    },
    {
      "inputs": [
        {
          "internalType": "address",
          "name": "_to",
          "type": "address"
        },
        {
          "internalType": "uint256",
          "name": "_tokenId",
          "type": "uint256"
        }
      ],
      "name": "transferTo",
      "outputs": [],
      "stateMutability": "nonpayable",
      "type": "function"
    }
  ],
  "bytecode": "0x60806040526040518060400160405280600c81526020017f57617272616e74792d4e465400000000000000000000000000000000000000008152506001908051906020019062000051929190620000b4565b506040518060400160405280600581526020017f5761724e54000000000000000000000000000000000000000000000000000000815250600290805190602001906200009f929190620000b4565b50348015620000ad57600080fd5b50620001c9565b828054620000c29062000193565b90600052602060002090601f016020900481019282620000e6576000855562000132565b82601f106200010157805160ff191683800117855562000132565b8280016001018555821562000132579182015b828111156200013157825182559160200191906001019062000114565b5b50905062000141919062000145565b5090565b5b808211156200016057600081600090555060010162000146565b5090565b7f4e487b7100000000000000000000000000000000000000000000000000000000600052602260045260246000fd5b60006002820490506001821680620001ac57607f821691505b60208210811415620001c357620001c262000164565b5b50919050565b612f6980620001d96000396000f3fe608060405234801561001057600080fd5b506004361061012c5760003560e01c80634e462ae2116100ad578063a0a2b57311610071578063a0a2b57314610344578063b088d74b14610360578063cc852c4314610390578063d6b1be0c146103c0578063feb3d3d6146103f05761012c565b80634e462ae21461027a5780635e0c630e146102965780638486bb8f146102c657806395d89b41146102f65780639e33698f146103145761012c565b80631c2dece2116100f45780631c2dece2146101bf5780632c1310ff146101f65780632caed4a0146102265780632ccb1b3014610242578063447658181461025e5761012c565b806303c5b1dc1461013157806306fdde031461014d5780630842547c1461016b578063095ea7b3146101875780630eb738ed146101a3575b600080fd5b61014b600480360381019061014691906121a6565b610420565b005b6101556104f6565b604051610162919061227f565b60405180910390f35b610185600480360381019061018091906122a1565b610588565b005b6101a1600480360381019061019c919061232c565b6107e3565b005b6101bd60048036038101906101b891906121a6565b61093a565b005b6101d960048036038101906101d491906122a1565b6109ff565b6040516101ed9897969594939291906123a5565b60405180910390f35b610210600480360381019061020b9190612431565b610ba4565b60405161021d919061251c565b60405180910390f35b610240600480360381019061023b91906125a3565b610c3b565b005b61025c6004803603810190610257919061232c565b610d31565b005b610278600480360381019061027391906121a6565b61103c565b005b610294600480360381019061028f9190612659565b611302565b005b6102b060048036038101906102ab9190612802565b6114a8565b6040516102bd91906128b5565b60405180910390f35b6102e060048036038101906102db919061232c565b611717565b6040516102ed91906128d0565b60405180910390f35b6102fe611783565b60405161030b919061227f565b60405180910390f35b61032e600480360381019061032991906122a1565b611815565b60405161033b91906128d0565b60405180910390f35b61035e600480360381019061035991906122a1565b61199a565b005b61037a600480360381019061037591906122a1565b611a6f565b60405161038791906128eb565b60405180910390f35b6103aa60048036038101906103a59190612431565b611aa2565b6040516103b7919061251c565b60405180910390f35b6103da60048036038101906103d5919061232c565b611b39565b6040516103e791906128b5565b60405180910390f35b61040a6004803603810190610405919061232c565b611b6a565b60405161041791906128b5565b60405180910390f35b816003600082815260200190815260200160002060000160009054906101000a900473ffffffffffffffffffffffffffffffffffffffff1673ffffffffffffffffffffffffffffffffffffffff163373ffffffffffffffffffffffffffffffffffffffff16148061049757506104963382611717565b5b6104d6576040517f08c379a00000000000000000000000000000000000000000000000000000000081526004016104cd9061299e565b60405180910390fd5b816003600085815260200190815260200160002060060181905550505050565b606060018054610505906129ed565b80601f0160208091040260200160405190810160405280929190818152602001828054610531906129ed565b801561057e5780601f106105535761010080835404028352916020019161057e565b820191906000526020600020905b81548152906001019060200180831161056157829003601f168201915b5050505050905090565b80600073ffffffffffffffffffffffffffffffffffffffff166003600083815260200190815260200160002060000160009054906101000a900473ffffffffffffffffffffffffffffffffffffffff1673ffffffffffffffffffffffffffffffffffffffff16141561062f576040517f08c379a000000000000000000000000000000000000000000000000000000000815260040161062690612a6b565b60405180910390fd5b816003600082815260200190815260200160002060000160009054906101000a900473ffffffffffffffffffffffffffffffffffffffff1673ffffffffffffffffffffffffffffffffffffffff163373ffffffffffffffffffffffffffffffffffffffff1614806106a657506106a53382611717565b5b6106e5576040517f08c379a00000000000000000000000000000000000000000000000000000000081526004016106dc9061299e565b60405180910390fd5b6106ee83611815565b156106f857600080fd5b60036000848152602001908152602001600020600080820160006101000a81549073ffffffffffffffffffffffffffffffffffffffff02191690556001820160006101000a81549073ffffffffffffffffffffffffffffffffffffffff021916905560028201600061076a9190612079565b60038201600061077a9190612079565b6004820160006101000a81549060ff021916905560058201600090556006820160009055600782016000905550506006600084815260200190815260200160002060006101000a81549073ffffffffffffffffffffffffffffffffffffffff0219169055505050565b806003600082815260200190815260200160002060000160009054906101000a900473ffffffffffffffffffffffffffffffffffffffff1673ffffffffffffffffffffffffffffffffffffffff163373ffffffffffffffffffffffffffffffffffffffff1614610888576040517f08c379a000000000000000000000000000000000000000000000000000000000815260040161087f90612afd565b60405180910390fd5b826006600084815260200190815260200160002060006101000a81548173ffffffffffffffffffffffffffffffffffffffff021916908373ffffffffffffffffffffffffffffffffffffffff160217905550818373ffffffffffffffffffffffffffffffffffffffff163373ffffffffffffffffffffffffffffffffffffffff167f8c5be1e5ebec7d5bd14f71427d1e84f3dd0314c0f7b2291e5b200ac8c7c3b92560405160405180910390a4505050565b816003600082815260200190815260200160002060000160009054906101000a900473ffffffffffffffffffffffffffffffffffffffff1673ffffffffffffffffffffffffffffffffffffffff163373ffffffffffffffffffffffffffffffffffffffff16146109df576040517f08c379a00000000000000000000000000000000000000000000000000000000081526004016109d690612afd565b60405180910390fd5b816003600085815260200190815260200160002060050181905550505050565b60036020528060005260406000206000915090508060000160009054906101000a900473ffffffffffffffffffffffffffffffffffffffff16908060010160009054906101000a900473ffffffffffffffffffffffffffffffffffffffff1690806002018054610a6e906129ed565b80601f0160208091040260200160405190810160405280929190818152602001828054610a9a906129ed565b8015610ae75780601f10610abc57610100808354040283529160200191610ae7565b820191906000526020600020905b815481529060010190602001808311610aca57829003601f168201915b505050505090806003018054610afc906129ed565b80601f0160208091040260200160405190810160405280929190818152602001828054610b28906129ed565b8015610b755780601f10610b4a57610100808354040283529160200191610b75565b820191906000526020600020905b815481529060010190602001808311610b5857829003601f168201915b5050505050908060040160009054906101000a900460ff16908060050154908060060154908060070154905088565b6060600560008373ffffffffffffffffffffffffffffffffffffffff1673ffffffffffffffffffffffffffffffffffffffff168152602001908152602001600020805480602002602001604051908101604052809291908181526020018280548015610c2f57602002820191906000526020600020905b815481526020019060010190808311610c1b575b50505050509050919050565b826003600082815260200190815260200160002060000160009054906101000a900473ffffffffffffffffffffffffffffffffffffffff1673ffffffffffffffffffffffffffffffffffffffff163373ffffffffffffffffffffffffffffffffffffffff161480610cb25750610cb13382611717565b5b610cf1576040517f08c379a0000000000000000000000000000000000000000000000000000000008152600401610ce89061299e565b60405180910390fd5b837f130210819bdd27875d348991cd07972acdce10517496cf9b4e4cf302cd4fcb038484604051610d23929190612b4a565b60405180910390a250505050565b600073ffffffffffffffffffffffffffffffffffffffff168273ffffffffffffffffffffffffffffffffffffffff161415610da1576040517f08c379a0000000000000000000000000000000000000000000000000000000008152600401610d9890612bba565b60405180910390fd5b6003600082815260200190815260200160002060000160009054906101000a900473ffffffffffffffffffffffffffffffffffffffff1673ffffffffffffffffffffffffffffffffffffffff163373ffffffffffffffffffffffffffffffffffffffff161480610e175750610e163382611717565b5b15610eeb57600073ffffffffffffffffffffffffffffffffffffffff166003600083815260200190815260200160002060010160009054906101000a900473ffffffffffffffffffffffffffffffffffffffff1673ffffffffffffffffffffffffffffffffffffffff1614610ec1576040517f08c379a0000000000000000000000000000000000000000000000000000000008152600401610eb890612c26565b60405180910390fd5b426003600083815260200190815260200160002060070181905550610ee68282611b9b565b611038565b3373ffffffffffffffffffffffffffffffffffffffff166003600083815260200190815260200160002060010160009054906101000a900473ffffffffffffffffffffffffffffffffffffffff1673ffffffffffffffffffffffffffffffffffffffff161415611037576003600082815260200190815260200160002060040160009054906101000a900460ff1615610f8d57610f888282611b9b565b611036565b600160036000838152602001908152602001600020600501541015610fe7576040517f08c379a0000000000000000000000000000000000000000000000000000000008152600401610fde90612c92565b60405180910390fd5b6110116001600360008481526020019081526020016000206005015461201390919063ffffffff16565b60036000838152602001908152602001600020600501819055506110358282611b9b565b5b5b5b5050565b816003600082815260200190815260200160002060000160009054906101000a900473ffffffffffffffffffffffffffffffffffffffff1673ffffffffffffffffffffffffffffffffffffffff163373ffffffffffffffffffffffffffffffffffffffff1614806110b357506110b23382611717565b5b6110f2576040517f08c379a00000000000000000000000000000000000000000000000000000000081526004016110e99061299e565b60405180910390fd5b816003600082815260200190815260200160002060000160009054906101000a900473ffffffffffffffffffffffffffffffffffffffff1673ffffffffffffffffffffffffffffffffffffffff163373ffffffffffffffffffffffffffffffffffffffff16148061116957506111683382611717565b5b6111a8576040517f08c379a000000000000000000000000000000000000000000000000000000000815260040161119f9061299e565b60405180910390fd5b6111e86003600086815260200190815260200160002060010160009054906101000a900473ffffffffffffffffffffffffffffffffffffffff1684610d31565b60036000858152602001908152602001600020600080820160006101000a81549073ffffffffffffffffffffffffffffffffffffffff02191690556001820160006101000a81549073ffffffffffffffffffffffffffffffffffffffff021916905560028201600061125a9190612079565b60038201600061126a9190612079565b6004820160006101000a81549060ff021916905560058201600090556006820160009055600782016000905550506006600085815260200190815260200160002060006101000a81549073ffffffffffffffffffffffffffffffffffffffff021916905582847fd2ad01d2025b1b609a72f43b1bd477f55744e832b763fc44f367a5d9c5a9cfb060405160405180910390a350505050565b60005b828290508110156114a35761148f83838381811061132657611325612cb2565b5b90506020028101906113389190612cf0565b80600001906113479190612d18565b8080601f016020809104026020016040519081016040528093929190818152602001838380828437600081840152601f19601f8201169050808301925050505050505084848481811061139d5761139c612cb2565b5b90506020028101906113af9190612cf0565b80602001906113be9190612d18565b8080601f016020809104026020016040519081016040528093929190818152602001838380828437600081840152601f19601f8201169050808301925050505050505085858581811061141457611413612cb2565b5b90506020028101906114269190612cf0565b60400160208101906114389190612d7b565b86868681811061144b5761144a612cb2565b5b905060200281019061145d9190612cf0565b6060013587878781811061147457611473612cb2565b5b90506020028101906114869190612cf0565b608001356114a8565b50808061149b90612dd7565b915050611305565b505050565b60006114b46000612029565b60006114c0600061203f565b90506040518061010001604052803373ffffffffffffffffffffffffffffffffffffffff168152602001600073ffffffffffffffffffffffffffffffffffffffff168152602001888152602001878152602001861515815260200185815260200184815260200160008152506003600083815260200190815260200160002060008201518160000160006101000a81548173ffffffffffffffffffffffffffffffffffffffff021916908373ffffffffffffffffffffffffffffffffffffffff16021790555060208201518160010160006101000a81548173ffffffffffffffffffffffffffffffffffffffff021916908373ffffffffffffffffffffffffffffffffffffffff16021790555060408201518160020190805190602001906115e99291906120b9565b5060608201518160030190805190602001906116069291906120b9565b5060808201518160040160006101000a81548160ff02191690831515021790555060a0820151816005015560c0820151816006015560e08201518160070155905050600560003373ffffffffffffffffffffffffffffffffffffffff1673ffffffffffffffffffffffffffffffffffffffff168152602001908152602001600020819080600181540180825580915050600190039060005260206000200160009091909190915055803373ffffffffffffffffffffffffffffffffffffffff16600073ffffffffffffffffffffffffffffffffffffffff167fddf252ad1be2c89b69c2b068fc378daa952ba7f163c4a11628f55a4df523b3ef60405160405180910390a48091505095945050505050565b60006006600083815260200190815260200160002060009054906101000a900473ffffffffffffffffffffffffffffffffffffffff1673ffffffffffffffffffffffffffffffffffffffff168373ffffffffffffffffffffffffffffffffffffffff1614905092915050565b606060028054611792906129ed565b80601f01602080910402602001604051908101604052809291908181526020018280546117be906129ed565b801561180b5780601f106117e05761010080835404028352916020019161180b565b820191906000526020600020905b8154815290600101906020018083116117ee57829003601f168201915b5050505050905090565b600081600073ffffffffffffffffffffffffffffffffffffffff166003600083815260200190815260200160002060000160009054906101000a900473ffffffffffffffffffffffffffffffffffffffff1673ffffffffffffffffffffffffffffffffffffffff1614156118be576040517f08c379a00000000000000000000000000000000000000000000000000000000081526004016118b590612a6b565b60405180910390fd5b600073ffffffffffffffffffffffffffffffffffffffff166003600085815260200190815260200160002060010160009054906101000a900473ffffffffffffffffffffffffffffffffffffffff1673ffffffffffffffffffffffffffffffffffffffff16148061198157504261197f61195a62015180600360008881526020019081526020016000206006015461204d90919063ffffffff16565b600360008781526020019081526020016000206007015461206390919063ffffffff16565b115b1561198f5760019150611994565b600091505b50919050565b806003600082815260200190815260200160002060000160009054906101000a900473ffffffffffffffffffffffffffffffffffffffff1673ffffffffffffffffffffffffffffffffffffffff163373ffffffffffffffffffffffffffffffffffffffff161480611a115750611a103382611717565b5b611a50576040517f08c379a0000000000000000000000000000000000000000000000000000000008152600401611a479061299e565b60405180910390fd5b4260036000848152602001908152602001600020600701819055505050565b60066020528060005260406000206000915054906101000a900473ffffffffffffffffffffffffffffffffffffffff1681565b6060600460008373ffffffffffffffffffffffffffffffffffffffff1673ffffffffffffffffffffffffffffffffffffffff168152602001908152602001600020805480602002602001604051908101604052809291908181526020018280548015611b2d57602002820191906000526020600020905b815481526020019060010190808311611b19575b50505050509050919050565b60056020528160005260406000208181548110611b5557600080fd5b90600052602060002001600091509150505481565b60046020528160005260406000208181548110611b8657600080fd5b90600052602060002001600091509150505481565b80600073ffffffffffffffffffffffffffffffffffffffff166003600083815260200190815260200160002060000160009054906101000a900473ffffffffffffffffffffffffffffffffffffffff1673ffffffffffffffffffffffffffffffffffffffff161415611c42576040517f08c379a0000000000000000000000000000000000000000000000000000000008152600401611c3990612a6b565b60405180910390fd5b826003600084815260200190815260200160002060010160006101000a81548173ffffffffffffffffffffffffffffffffffffffff021916908373ffffffffffffffffffffffffffffffffffffffff160217905550611ca13383611717565b158015611d1057506003600083815260200190815260200160002060000160009054906101000a900473ffffffffffffffffffffffffffffffffffffffff1673ffffffffffffffffffffffffffffffffffffffff163373ffffffffffffffffffffffffffffffffffffffff1614155b15611f4d5760005b600460003373ffffffffffffffffffffffffffffffffffffffff1673ffffffffffffffffffffffffffffffffffffffff16815260200190815260200160002080549050811015611f4b5782600460003373ffffffffffffffffffffffffffffffffffffffff1673ffffffffffffffffffffffffffffffffffffffff1681526020019081526020016000208281548110611db457611db3612cb2565b5b90600052602060002001541415611f3857600460003373ffffffffffffffffffffffffffffffffffffffff1673ffffffffffffffffffffffffffffffffffffffff1681526020019081526020016000206001600460003373ffffffffffffffffffffffffffffffffffffffff1673ffffffffffffffffffffffffffffffffffffffff16815260200190815260200160002080549050611e539190612e20565b81548110611e6457611e63612cb2565b5b9060005260206000200154600460003373ffffffffffffffffffffffffffffffffffffffff1673ffffffffffffffffffffffffffffffffffffffff1681526020019081526020016000208281548110611ec057611ebf612cb2565b5b9060005260206000200181905550600460003373ffffffffffffffffffffffffffffffffffffffff1673ffffffffffffffffffffffffffffffffffffffff168152602001908152602001600020805480611f1d57611f1c612e54565b5b60019003818190600052602060002001600090559055611f4b565b8080611f4390612dd7565b915050611d18565b505b600460008473ffffffffffffffffffffffffffffffffffffffff1673ffffffffffffffffffffffffffffffffffffffff168152602001908152602001600020829080600181540180825580915050600190039060005260206000200160009091909190915055818373ffffffffffffffffffffffffffffffffffffffff163373ffffffffffffffffffffffffffffffffffffffff167fddf252ad1be2c89b69c2b068fc378daa952ba7f163c4a11628f55a4df523b3ef60405160405180910390a4505050565b600081836120219190612e20565b905092915050565b6001816000016000828254019250508190555050565b600081600001549050919050565b6000818361205b9190612e83565b905092915050565b600081836120719190612edd565b905092915050565b508054612085906129ed565b6000825580601f1061209757506120b6565b601f0160209004906000526020600020908101906120b5919061213f565b5b50565b8280546120c5906129ed565b90600052602060002090601f0160209004810192826120e7576000855561212e565b82601f1061210057805160ff191683800117855561212e565b8280016001018555821561212e579182015b8281111561212d578251825591602001919060010190612112565b5b50905061213b919061213f565b5090565b5b80821115612158576000816000905550600101612140565b5090565b6000604051905090565b600080fd5b600080fd5b6000819050919050565b61218381612170565b811461218e57600080fd5b50565b6000813590506121a08161217a565b92915050565b600080604083850312156121bd576121bc612166565b5b60006121cb85828601612191565b92505060206121dc85828601612191565b9150509250929050565b600081519050919050565b600082825260208201905092915050565b60005b83811015612220578082015181840152602081019050612205565b8381111561222f576000848401525b50505050565b6000601f19601f8301169050919050565b6000612251826121e6565b61225b81856121f1565b935061226b818560208601612202565b61227481612235565b840191505092915050565b600060208201905081810360008301526122998184612246565b905092915050565b6000602082840312156122b7576122b6612166565b5b60006122c584828501612191565b91505092915050565b600073ffffffffffffffffffffffffffffffffffffffff82169050919050565b60006122f9826122ce565b9050919050565b612309816122ee565b811461231457600080fd5b50565b60008135905061232681612300565b92915050565b6000806040838503121561234357612342612166565b5b600061235185828601612317565b925050602061236285828601612191565b9150509250929050565b612375816122ee565b82525050565b60008115159050919050565b6123908161237b565b82525050565b61239f81612170565b82525050565b6000610100820190506123bb600083018b61236c565b6123c8602083018a61236c565b81810360408301526123da8189612246565b905081810360608301526123ee8188612246565b90506123fd6080830187612387565b61240a60a0830186612396565b61241760c0830185612396565b61242460e0830184612396565b9998505050505050505050565b60006020828403121561244757612446612166565b5b600061245584828501612317565b91505092915050565b600081519050919050565b600082825260208201905092915050565b6000819050602082019050919050565b61249381612170565b82525050565b60006124a5838361248a565b60208301905092915050565b6000602082019050919050565b60006124c98261245e565b6124d38185612469565b93506124de8361247a565b8060005b8381101561250f5781516124f68882612499565b9750612501836124b1565b9250506001810190506124e2565b5085935050505092915050565b6000602082019050818103600083015261253681846124be565b905092915050565b600080fd5b600080fd5b600080fd5b60008083601f8401126125635761256261253e565b5b8235905067ffffffffffffffff8111156125805761257f612543565b5b60208301915083600182028301111561259c5761259b612548565b5b9250929050565b6000806000604084860312156125bc576125bb612166565b5b60006125ca86828701612191565b935050602084013567ffffffffffffffff8111156125eb576125ea61216b565b5b6125f78682870161254d565b92509250509250925092565b60008083601f8401126126195761261861253e565b5b8235905067ffffffffffffffff81111561263657612635612543565b5b60208301915083602082028301111561265257612651612548565b5b9250929050565b600080602083850312156126705761266f612166565b5b600083013567ffffffffffffffff81111561268e5761268d61216b565b5b61269a85828601612603565b92509250509250929050565b600080fd5b7f4e487b7100000000000000000000000000000000000000000000000000000000600052604160045260246000fd5b6126e382612235565b810181811067ffffffffffffffff82111715612702576127016126ab565b5b80604052505050565b600061271561215c565b905061272182826126da565b919050565b600067ffffffffffffffff821115612741576127406126ab565b5b61274a82612235565b9050602081019050919050565b82818337600083830152505050565b600061277961277484612726565b61270b565b905082815260208101848484011115612795576127946126a6565b5b6127a0848285612757565b509392505050565b600082601f8301126127bd576127bc61253e565b5b81356127cd848260208601612766565b91505092915050565b6127df8161237b565b81146127ea57600080fd5b50565b6000813590506127fc816127d6565b92915050565b600080600080600060a0868803121561281e5761281d612166565b5b600086013567ffffffffffffffff81111561283c5761283b61216b565b5b612848888289016127a8565b955050602086013567ffffffffffffffff8111156128695761286861216b565b5b612875888289016127a8565b9450506040612886888289016127ed565b935050606061289788828901612191565b92505060806128a888828901612191565b9150509295509295909350565b60006020820190506128ca6000830184612396565b92915050565b60006020820190506128e56000830184612387565b92915050565b6000602082019050612900600083018461236c565b92915050565b7f53656e646572206973206e656974686572207468652063726561746f72206e6f60008201527f742074686520617070726f766564206f6e6520666f722074686520776172726160208201527f6e74792100000000000000000000000000000000000000000000000000000000604082015250565b60006129886044836121f1565b915061299382612906565b606082019050919050565b600060208201905081810360008301526129b78161297b565b9050919050565b7f4e487b7100000000000000000000000000000000000000000000000000000000600052602260045260246000fd5b60006002820490506001821680612a0557607f821691505b60208210811415612a1957612a186129be565b5b50919050565b7f546f6b656e4964206973206e6f6e2d6578697374616e74210000000000000000600082015250565b6000612a556018836121f1565b9150612a6082612a1f565b602082019050919050565b60006020820190508181036000830152612a8481612a48565b9050919050565b7f53656e646572206973206e6f742063726561746f72206f66207468652077617260008201527f72616e7479210000000000000000000000000000000000000000000000000000602082015250565b6000612ae76026836121f1565b9150612af282612a8b565b604082019050919050565b60006020820190508181036000830152612b1681612ada565b9050919050565b6000612b2983856121f1565b9350612b36838584612757565b612b3f83612235565b840190509392505050565b60006020820190508181036000830152612b65818486612b1d565b90509392505050565b7f43616e6e6f74207472616e7366657220746f2030783021000000000000000000600082015250565b6000612ba46017836121f1565b9150612baf82612b6e565b602082019050919050565b60006020820190508181036000830152612bd381612b97565b9050919050565b7f546f6b656e20697320616c7265616479206f776e656421000000000000000000600082015250565b6000612c106017836121f1565b9150612c1b82612bda565b602082019050919050565b60006020820190508181036000830152612c3f81612c03565b9050919050565b7f5472616e736665727320756e617661696c61626c652100000000000000000000600082015250565b6000612c7c6016836121f1565b9150612c8782612c46565b602082019050919050565b60006020820190508181036000830152612cab81612c6f565b9050919050565b7f4e487b7100000000000000000000000000000000000000000000000000000000600052603260045260246000fd5b600080fd5b600080fd5b600080fd5b60008235600160a003833603038112612d0c57612d0b612ce1565b5b80830191505092915050565b60008083356001602003843603038112612d3557612d34612ce1565b5b80840192508235915067ffffffffffffffff821115612d5757612d56612ce6565b5b602083019250600182023603831315612d7357612d72612ceb565b5b509250929050565b600060208284031215612d9157612d90612166565b5b6000612d9f848285016127ed565b91505092915050565b7f4e487b7100000000000000000000000000000000000000000000000000000000600052601160045260246000fd5b6000612de282612170565b91507fffffffffffffffffffffffffffffffffffffffffffffffffffffffffffffffff821415612e1557612e14612da8565b5b600182019050919050565b6000612e2b82612170565b9150612e3683612170565b925082821015612e4957612e48612da8565b5b828203905092915050565b7f4e487b7100000000000000000000000000000000000000000000000000000000600052603160045260246000fd5b6000612e8e82612170565b9150612e9983612170565b9250817fffffffffffffffffffffffffffffffffffffffffffffffffffffffffffffffff0483118215151615612ed257612ed1612da8565b5b828202905092915050565b6000612ee882612170565b9150612ef383612170565b9250827fffffffffffffffffffffffffffffffffffffffffffffffffffffffffffffffff03821115612f2857612f27612da8565b5b82820190509291505056fea26469706673582212204a039ed49dd651b156897d637948063e14dcd3814e2e28328196c939cacb17f964736f6c63430008090033",
  "linkReferences": {},
  "deployedLinkReferences": {}
}