{
  "_format": "hh-sol-artifact-1",
  "contractName": "WarrantyNFT",
  "sourceName": "contracts/WarrantyNFT.sol",
  "abi": [
    {
      "anonymous": false,
      "inputs": [
        {
          "indexed": true,
          "internalType": "address",
          "name": "_creator",
          "type": "address"
        },
        {
          "indexed": true,
          "internalType": "address",
          "name": "_approved",
          "type": "address"
        },
        {
          "indexed": true,
          "internalType": "uint256",
          "name": "_tokenId",
          "type": "uint256"
        }
      ],
      "name": "Approval",
      "type": "event"
    },
    {
      "anonymous": false,
      "inputs": [
        {
          "indexed": true,
          "internalType": "uint256",
          "name": "_tokenId",
          "type": "uint256"
        },
        {
          "indexed": false,
          "internalType": "string",
          "name": "uri",
          "type": "string"
        }
      ],
      "name": "ItemRepair",
      "type": "event"
    },
    {
      "anonymous": false,
      "inputs": [
        {
          "indexed": true,
          "internalType": "uint256",
          "name": "_replacedTokenId",
          "type": "uint256"
        },
        {
          "indexed": true,
          "internalType": "uint256",
          "name": "_newTokenId",
          "type": "uint256"
        }
      ],
      "name": "ItemReplace",
      "type": "event"
    },
    {
      "anonymous": false,
      "inputs": [
        {
          "indexed": true,
          "internalType": "address",
          "name": "_from",
          "type": "address"
        },
        {
          "indexed": true,
          "internalType": "address",
          "name": "_to",
          "type": "address"
        },
        {
          "indexed": true,
          "internalType": "uint256",
          "name": "_tokenId",
          "type": "uint256"
        }
      ],
      "name": "Transfer",
      "type": "event"
    },
    {
      "inputs": [
        {
          "internalType": "address",
          "name": "_approved",
          "type": "address"
        },
        {
          "internalType": "uint256",
          "name": "_tokenId",
          "type": "uint256"
        }
      ],
      "name": "approve",
      "outputs": [],
      "stateMutability": "nonpayable",
      "type": "function"
    },
    {
      "inputs": [
        {
          "internalType": "address",
          "name": "",
          "type": "address"
        },
        {
          "internalType": "uint256",
          "name": "",
          "type": "uint256"
        }
      ],
      "name": "creatorToWarrantyIds",
      "outputs": [
        {
          "internalType": "uint256",
          "name": "",
          "type": "uint256"
        }
      ],
      "stateMutability": "view",
      "type": "function"
    },
    {
      "inputs": [
        {
          "internalType": "uint256",
          "name": "_tokenId",
          "type": "uint256"
        }
      ],
      "name": "decayWarranty",
      "outputs": [],
      "stateMutability": "nonpayable",
      "type": "function"
    },
    {
      "inputs": [
        {
          "internalType": "uint256",
          "name": "",
          "type": "uint256"
        }
      ],
      "name": "idToWarranty",
      "outputs": [
        {
          "internalType": "address",
          "name": "creator",
          "type": "address"
        },
        {
          "internalType": "string",
          "name": "itemSerialNumber",
          "type": "string"
        },
        {
          "internalType": "string",
          "name": "uri",
          "type": "string"
        },
        {
          "internalType": "bool",
          "name": "unlimitedTransfers",
          "type": "bool"
        },
        {
          "internalType": "uint256",
          "name": "numOfTransfersAvailable",
          "type": "uint256"
        },
        {
          "internalType": "uint256",
          "name": "period",
          "type": "uint256"
        },
        {
          "internalType": "uint256",
          "name": "timestamp",
          "type": "uint256"
        }
      ],
      "stateMutability": "view",
      "type": "function"
    },
    {
      "inputs": [
        {
          "internalType": "address",
          "name": "_address",
          "type": "address"
        },
        {
          "internalType": "uint256",
          "name": "_tokenId",
          "type": "uint256"
        }
      ],
      "name": "isApprovedAddress",
      "outputs": [
        {
          "internalType": "bool",
          "name": "",
          "type": "bool"
        }
      ],
      "stateMutability": "view",
      "type": "function"
    },
    {
      "inputs": [
        {
          "internalType": "uint256",
          "name": "_tokenId",
          "type": "uint256"
        }
      ],
      "name": "isValidWarranty",
      "outputs": [
        {
          "internalType": "bool",
          "name": "",
          "type": "bool"
        }
      ],
      "stateMutability": "view",
      "type": "function"
    },
    {
      "inputs": [
        {
          "internalType": "uint256",
          "name": "_tokenId",
          "type": "uint256"
        },
        {
          "internalType": "string",
          "name": "_uri",
          "type": "string"
        }
      ],
      "name": "itemRepair",
      "outputs": [],
      "stateMutability": "nonpayable",
      "type": "function"
    },
    {
      "inputs": [
        {
          "internalType": "uint256",
          "name": "_prevTokenId",
          "type": "uint256"
        },
        {
          "internalType": "string",
          "name": "_itemSerialNumber",
          "type": "string"
        },
        {
          "internalType": "string",
          "name": "_uri",
          "type": "string"
        },
        {
          "internalType": "bool",
          "name": "_unlimitedTransfers",
          "type": "bool"
        },
        {
          "internalType": "uint256",
          "name": "_numOfTransfers",
          "type": "uint256"
        },
        {
          "internalType": "uint256",
          "name": "_period",
          "type": "uint256"
        }
      ],
      "name": "itemReplace",
      "outputs": [],
      "stateMutability": "nonpayable",
      "type": "function"
    },
    {
      "inputs": [
        {
          "internalType": "string",
          "name": "_itemSerialNumber",
          "type": "string"
        },
        {
          "internalType": "string",
          "name": "_uri",
          "type": "string"
        },
        {
          "internalType": "bool",
          "name": "_unlimitedTransfers",
          "type": "bool"
        },
        {
          "internalType": "uint256",
          "name": "_numOfTransfers",
          "type": "uint256"
        },
        {
          "internalType": "uint256",
          "name": "_period",
          "type": "uint256"
        }
      ],
      "name": "mint",
      "outputs": [
        {
          "internalType": "uint256",
          "name": "",
          "type": "uint256"
        }
      ],
      "stateMutability": "nonpayable",
      "type": "function"
    },
    {
      "inputs": [
        {
          "components": [
            {
              "internalType": "string",
              "name": "itemSerialNumber",
              "type": "string"
            },
            {
              "internalType": "string",
              "name": "uri",
              "type": "string"
            },
            {
              "internalType": "bool",
              "name": "unlimitedTransfers",
              "type": "bool"
            },
            {
              "internalType": "uint256",
              "name": "numOfTransfers",
              "type": "uint256"
            },
            {
              "internalType": "uint256",
              "name": "period",
              "type": "uint256"
            }
          ],
          "internalType": "struct WarrantyNFT.mintInput[]",
          "name": "input",
          "type": "tuple[]"
        }
      ],
      "name": "multipleMint",
      "outputs": [],
      "stateMutability": "nonpayable",
      "type": "function"
    },
    {
      "inputs": [],
      "name": "name",
      "outputs": [
        {
          "internalType": "string",
          "name": "",
          "type": "string"
        }
      ],
      "stateMutability": "view",
      "type": "function"
    },
    {
      "inputs": [
        {
          "internalType": "address",
          "name": "",
          "type": "address"
        }
      ],
      "name": "ownerWarrantyCount",
      "outputs": [
        {
          "internalType": "uint256",
          "name": "",
          "type": "uint256"
        }
      ],
      "stateMutability": "view",
      "type": "function"
    },
    {
      "inputs": [
        {
          "internalType": "uint256",
          "name": "_tokenId",
          "type": "uint256"
        },
        {
          "internalType": "uint256",
          "name": "_period",
          "type": "uint256"
        }
      ],
      "name": "setPeriod",
      "outputs": [],
      "stateMutability": "nonpayable",
      "type": "function"
    },
    {
      "inputs": [
        {
          "internalType": "uint256",
          "name": "_tokenId",
          "type": "uint256"
        }
      ],
      "name": "setTimestamp",
      "outputs": [],
      "stateMutability": "nonpayable",
      "type": "function"
    },
    {
      "inputs": [
        {
          "internalType": "uint256",
          "name": "_tokenId",
          "type": "uint256"
        },
        {
          "internalType": "uint256",
          "name": "_transfers",
          "type": "uint256"
        }
      ],
      "name": "setTransfersAvailable",
      "outputs": [],
      "stateMutability": "nonpayable",
      "type": "function"
    },
    {
      "inputs": [],
      "name": "symbol",
      "outputs": [
        {
          "internalType": "string",
          "name": "",
          "type": "string"
        }
      ],
      "stateMutability": "view",
      "type": "function"
    },
    {
      "inputs": [
        {
          "internalType": "address",
          "name": "_to",
          "type": "address"
        },
        {
          "internalType": "uint256",
          "name": "_tokenId",
          "type": "uint256"
        }
      ],
      "name": "transferTo",
      "outputs": [],
      "stateMutability": "nonpayable",
      "type": "function"
    },
    {
      "inputs": [
        {
          "internalType": "uint256",
          "name": "",
          "type": "uint256"
        }
      ],
      "name": "warrantyIdToApprovedAddress",
      "outputs": [
        {
          "internalType": "address",
          "name": "",
          "type": "address"
        }
      ],
      "stateMutability": "view",
      "type": "function"
    },
    {
      "inputs": [
        {
          "internalType": "uint256",
          "name": "",
          "type": "uint256"
        }
      ],
      "name": "warrantyIdToOwner",
      "outputs": [
        {
          "internalType": "address",
          "name": "",
          "type": "address"
        }
      ],
      "stateMutability": "view",
      "type": "function"
    }
  ],
  "bytecode": "0x60806040526040518060400160405280600c81526020017f57617272616e74792d4e465400000000000000000000000000000000000000008152506001908051906020019062000051929190620000b4565b506040518060400160405280600581526020017f5761724e54000000000000000000000000000000000000000000000000000000815250600290805190602001906200009f929190620000b4565b50348015620000ad57600080fd5b50620001c9565b828054620000c29062000193565b90600052602060002090601f016020900481019282620000e6576000855562000132565b82601f106200010157805160ff191683800117855562000132565b8280016001018555821562000132579182015b828111156200013157825182559160200191906001019062000114565b5b50905062000141919062000145565b5090565b5b808211156200016057600081600090555060010162000146565b5090565b7f4e487b7100000000000000000000000000000000000000000000000000000000600052602260045260246000fd5b60006002820490506001821680620001ac57607f821691505b60208210811415620001c357620001c262000164565b5b50919050565b6127be80620001d96000396000f3fe608060405234801561001057600080fd5b50600436106101215760003560e01c80632ccb1b30116100ad5780639888ddc2116100715780639888ddc21461031c5780639e33698f1461034c578063a0a2b5731461037c578063bccdaff314610398578063fbb90944146103c857610121565b80632ccb1b30146102665780634e462ae2146102825780635e0c630e1461029e5780638486bb8f146102ce57806395d89b41146102fe57610121565b8063095ea7b3116100f4578063095ea7b3146101ac5780630eb562e4146101c85780630eb738ed146101f85780631c2dece2146102145780632caed4a01461024a57610121565b806303c5b1dc1461012657806306b085721461014257806306fdde031461015e5780630921886e1461017c575b600080fd5b610140600480360381019061013b9190611b22565b6103e4565b005b61015c60048036038101906101579190611bff565b6104ba565b005b61016661068b565b6040516101739190611d67565b60405180910390f35b61019660048036038101906101919190611de7565b61071d565b6040516101a39190611e36565b60405180910390f35b6101c660048036038101906101c19190611de7565b61074e565b005b6101e260048036038101906101dd9190611e51565b6108a5565b6040516101ef9190611e8d565b60405180910390f35b610212600480360381019061020d9190611b22565b6108d8565b005b61022e60048036038101906102299190611e51565b61099d565b6040516102419796959493929190611eb7565b60405180910390f35b610264600480360381019061025f9190611f34565b610b1c565b005b610280600480360381019061027b9190611de7565b610c12565b005b61029c60048036038101906102979190611fea565b610dfb565b005b6102b860048036038101906102b39190612167565b610fa1565b6040516102c59190611e36565b60405180910390f35b6102e860048036038101906102e39190611de7565b6111ab565b6040516102f5919061221a565b60405180910390f35b610306611217565b6040516103139190611d67565b60405180910390f35b61033660048036038101906103319190612235565b6112a9565b6040516103439190611e36565b60405180910390f35b61036660048036038101906103619190611e51565b6112c1565b604051610373919061221a565b60405180910390f35b61039660048036038101906103919190611e51565b611443565b005b6103b260048036038101906103ad9190611e51565b611518565b6040516103bf9190611e8d565b60405180910390f35b6103e260048036038101906103dd9190611e51565b61154b565b005b816003600082815260200190815260200160002060000160009054906101000a900473ffffffffffffffffffffffffffffffffffffffff1673ffffffffffffffffffffffffffffffffffffffff163373ffffffffffffffffffffffffffffffffffffffff16148061045b575061045a33826111ab565b5b61049a576040517f08c379a0000000000000000000000000000000000000000000000000000000008152600401610491906122fa565b60405180910390fd5b816003600085815260200190815260200160002060050181905550505050565b876003600082815260200190815260200160002060000160009054906101000a900473ffffffffffffffffffffffffffffffffffffffff1673ffffffffffffffffffffffffffffffffffffffff163373ffffffffffffffffffffffffffffffffffffffff161480610531575061053033826111ab565b5b610570576040517f08c379a0000000000000000000000000000000000000000000000000000000008152600401610567906122fa565b60405180910390fd5b600061060789898080601f016020809104026020016040519081016040528093929190818152602001838380828437600081840152601f19601f8201169050808301925050505050505088888080601f016020809104026020016040519081016040528093929190818152602001838380828437600081840152601f19601f82011690508083019250505050505050878787610fa1565b9050610646600460008c815260200190815260200160002060009054906101000a900473ffffffffffffffffffffffffffffffffffffffff16826116cb565b61065160008b6116cb565b808a7fd2ad01d2025b1b609a72f43b1bd477f55744e832b763fc44f367a5d9c5a9cfb060405160405180910390a350505050505050505050565b60606001805461069a90612349565b80601f01602080910402602001604051908101604052809291908181526020018280546106c690612349565b80156107135780601f106106e857610100808354040283529160200191610713565b820191906000526020600020905b8154815290600101906020018083116106f657829003601f168201915b5050505050905090565b6006602052816000526040600020818154811061073957600080fd5b90600052602060002001600091509150505481565b806003600082815260200190815260200160002060000160009054906101000a900473ffffffffffffffffffffffffffffffffffffffff1673ffffffffffffffffffffffffffffffffffffffff163373ffffffffffffffffffffffffffffffffffffffff16146107f3576040517f08c379a00000000000000000000000000000000000000000000000000000000081526004016107ea906123ed565b60405180910390fd5b826007600084815260200190815260200160002060006101000a81548173ffffffffffffffffffffffffffffffffffffffff021916908373ffffffffffffffffffffffffffffffffffffffff160217905550818373ffffffffffffffffffffffffffffffffffffffff163373ffffffffffffffffffffffffffffffffffffffff167f8c5be1e5ebec7d5bd14f71427d1e84f3dd0314c0f7b2291e5b200ac8c7c3b92560405160405180910390a4505050565b60076020528060005260406000206000915054906101000a900473ffffffffffffffffffffffffffffffffffffffff1681565b816003600082815260200190815260200160002060000160009054906101000a900473ffffffffffffffffffffffffffffffffffffffff1673ffffffffffffffffffffffffffffffffffffffff163373ffffffffffffffffffffffffffffffffffffffff161461097d576040517f08c379a0000000000000000000000000000000000000000000000000000000008152600401610974906123ed565b60405180910390fd5b816003600085815260200190815260200160002060040181905550505050565b60036020528060005260406000206000915090508060000160009054906101000a900473ffffffffffffffffffffffffffffffffffffffff16908060010180546109e690612349565b80601f0160208091040260200160405190810160405280929190818152602001828054610a1290612349565b8015610a5f5780601f10610a3457610100808354040283529160200191610a5f565b820191906000526020600020905b815481529060010190602001808311610a4257829003601f168201915b505050505090806002018054610a7490612349565b80601f0160208091040260200160405190810160405280929190818152602001828054610aa090612349565b8015610aed5780601f10610ac257610100808354040283529160200191610aed565b820191906000526020600020905b815481529060010190602001808311610ad057829003601f168201915b5050505050908060030160009054906101000a900460ff16908060040154908060050154908060060154905087565b826003600082815260200190815260200160002060000160009054906101000a900473ffffffffffffffffffffffffffffffffffffffff1673ffffffffffffffffffffffffffffffffffffffff163373ffffffffffffffffffffffffffffffffffffffff161480610b935750610b9233826111ab565b5b610bd2576040517f08c379a0000000000000000000000000000000000000000000000000000000008152600401610bc9906122fa565b60405180910390fd5b837f130210819bdd27875d348991cd07972acdce10517496cf9b4e4cf302cd4fcb038484604051610c0492919061243a565b60405180910390a250505050565b6003600082815260200190815260200160002060000160009054906101000a900473ffffffffffffffffffffffffffffffffffffffff1673ffffffffffffffffffffffffffffffffffffffff163373ffffffffffffffffffffffffffffffffffffffff161480610c885750610c8733826111ab565b5b15610cb757426003600083815260200190815260200160002060060181905550610cb282826116cb565b610df7565b3373ffffffffffffffffffffffffffffffffffffffff166004600083815260200190815260200160002060009054906101000a900473ffffffffffffffffffffffffffffffffffffffff1673ffffffffffffffffffffffffffffffffffffffff161415610df6576003600082815260200190815260200160002060030160009054906101000a900460ff1615610d5657610d5182826116cb565b610df5565b600160036000838152602001908152602001600020600401541015610db0576040517f08c379a0000000000000000000000000000000000000000000000000000000008152600401610da7906124aa565b60405180910390fd5b610dda600160036000848152602001908152602001600020600401546119cf90919063ffffffff16565b60036000838152602001908152602001600020600401819055505b5b5b5050565b60005b82829050811015610f9c57610f88838383818110610e1f57610e1e6124ca565b5b9050602002810190610e319190612508565b8060000190610e409190612530565b8080601f016020809104026020016040519081016040528093929190818152602001838380828437600081840152601f19601f82011690508083019250505050505050848484818110610e9657610e956124ca565b5b9050602002810190610ea89190612508565b8060200190610eb79190612530565b8080601f016020809104026020016040519081016040528093929190818152602001838380828437600081840152601f19601f82011690508083019250505050505050858585818110610f0d57610f0c6124ca565b5b9050602002810190610f1f9190612508565b6040016020810190610f319190612593565b868686818110610f4457610f436124ca565b5b9050602002810190610f569190612508565b60600135878787818110610f6d57610f6c6124ca565b5b9050602002810190610f7f9190612508565b60800135610fa1565b508080610f94906125ef565b915050610dfe565b505050565b6000610fad60006119e5565b6000610fb960006119fb565b90506040518060e001604052803373ffffffffffffffffffffffffffffffffffffffff168152602001888152602001878152602001861515815260200185815260200184815260200160008152506003600083815260200190815260200160002060008201518160000160006101000a81548173ffffffffffffffffffffffffffffffffffffffff021916908373ffffffffffffffffffffffffffffffffffffffff160217905550602082015181600101908051906020019061107d929190611a35565b50604082015181600201908051906020019061109a929190611a35565b5060608201518160030160006101000a81548160ff0219169083151502179055506080820151816004015560a0820151816005015560c08201518160060155905050600660003373ffffffffffffffffffffffffffffffffffffffff1673ffffffffffffffffffffffffffffffffffffffff168152602001908152602001600020819080600181540180825580915050600190039060005260206000200160009091909190915055803373ffffffffffffffffffffffffffffffffffffffff16600073ffffffffffffffffffffffffffffffffffffffff167fddf252ad1be2c89b69c2b068fc378daa952ba7f163c4a11628f55a4df523b3ef60405160405180910390a48091505095945050505050565b60006007600083815260200190815260200160002060009054906101000a900473ffffffffffffffffffffffffffffffffffffffff1673ffffffffffffffffffffffffffffffffffffffff168373ffffffffffffffffffffffffffffffffffffffff1614905092915050565b60606002805461122690612349565b80601f016020809104026020016040519081016040528092919081815260200182805461125290612349565b801561129f5780601f106112745761010080835404028352916020019161129f565b820191906000526020600020905b81548152906001019060200180831161128257829003601f168201915b5050505050905090565b60056020528060005260406000206000915090505481565b600081600073ffffffffffffffffffffffffffffffffffffffff166003600083815260200190815260200160002060000160009054906101000a900473ffffffffffffffffffffffffffffffffffffffff1673ffffffffffffffffffffffffffffffffffffffff16141561136a576040517f08c379a000000000000000000000000000000000000000000000000000000000815260040161136190612684565b60405180910390fd5b600073ffffffffffffffffffffffffffffffffffffffff166004600085815260200190815260200160002060009054906101000a900473ffffffffffffffffffffffffffffffffffffffff1673ffffffffffffffffffffffffffffffffffffffff16148061142a575042611428611403620151806003600088815260200190815260200160002060050154611a0990919063ffffffff16565b6003600087815260200190815260200160002060060154611a1f90919063ffffffff16565b115b15611438576001915061143d565b600091505b50919050565b806003600082815260200190815260200160002060000160009054906101000a900473ffffffffffffffffffffffffffffffffffffffff1673ffffffffffffffffffffffffffffffffffffffff163373ffffffffffffffffffffffffffffffffffffffff1614806114ba57506114b933826111ab565b5b6114f9576040517f08c379a00000000000000000000000000000000000000000000000000000000081526004016114f0906122fa565b60405180910390fd5b4260036000848152602001908152602001600020600601819055505050565b60046020528060005260406000206000915054906101000a900473ffffffffffffffffffffffffffffffffffffffff1681565b80600073ffffffffffffffffffffffffffffffffffffffff166003600083815260200190815260200160002060000160009054906101000a900473ffffffffffffffffffffffffffffffffffffffff1673ffffffffffffffffffffffffffffffffffffffff1614156115f2576040517f08c379a00000000000000000000000000000000000000000000000000000000081526004016115e990612684565b60405180910390fd5b816003600082815260200190815260200160002060000160009054906101000a900473ffffffffffffffffffffffffffffffffffffffff1673ffffffffffffffffffffffffffffffffffffffff163373ffffffffffffffffffffffffffffffffffffffff161480611669575061166833826111ab565b5b6116a8576040517f08c379a000000000000000000000000000000000000000000000000000000000815260040161169f906122fa565b60405180910390fd5b6116b1836112c1565b156116bb57600080fd5b6116c66000846116cb565b505050565b80600073ffffffffffffffffffffffffffffffffffffffff166003600083815260200190815260200160002060000160009054906101000a900473ffffffffffffffffffffffffffffffffffffffff1673ffffffffffffffffffffffffffffffffffffffff161415611772576040517f08c379a000000000000000000000000000000000000000000000000000000000815260040161176990612684565b60405180910390fd5b826004600084815260200190815260200160002060006101000a81548173ffffffffffffffffffffffffffffffffffffffff021916908373ffffffffffffffffffffffffffffffffffffffff1602179055506117ce33836111ab565b15801561183d57506003600083815260200190815260200160002060000160009054906101000a900473ffffffffffffffffffffffffffffffffffffffff1673ffffffffffffffffffffffffffffffffffffffff163373ffffffffffffffffffffffffffffffffffffffff1614155b156118d9576118956001600560003373ffffffffffffffffffffffffffffffffffffffff1673ffffffffffffffffffffffffffffffffffffffff168152602001908152602001600020546119cf90919063ffffffff16565b600560003373ffffffffffffffffffffffffffffffffffffffff1673ffffffffffffffffffffffffffffffffffffffff168152602001908152602001600020819055505b61192c6001600560008673ffffffffffffffffffffffffffffffffffffffff1673ffffffffffffffffffffffffffffffffffffffff16815260200190815260200160002054611a1f90919063ffffffff16565b600560008573ffffffffffffffffffffffffffffffffffffffff1673ffffffffffffffffffffffffffffffffffffffff16815260200190815260200160002081905550818373ffffffffffffffffffffffffffffffffffffffff163373ffffffffffffffffffffffffffffffffffffffff167fddf252ad1be2c89b69c2b068fc378daa952ba7f163c4a11628f55a4df523b3ef60405160405180910390a4505050565b600081836119dd91906126a4565b905092915050565b6001816000016000828254019250508190555050565b600081600001549050919050565b60008183611a1791906126d8565b905092915050565b60008183611a2d9190612732565b905092915050565b828054611a4190612349565b90600052602060002090601f016020900481019282611a635760008555611aaa565b82601f10611a7c57805160ff1916838001178555611aaa565b82800160010185558215611aaa579182015b82811115611aa9578251825591602001919060010190611a8e565b5b509050611ab79190611abb565b5090565b5b80821115611ad4576000816000905550600101611abc565b5090565b6000604051905090565b600080fd5b600080fd5b6000819050919050565b611aff81611aec565b8114611b0a57600080fd5b50565b600081359050611b1c81611af6565b92915050565b60008060408385031215611b3957611b38611ae2565b5b6000611b4785828601611b0d565b9250506020611b5885828601611b0d565b9150509250929050565b600080fd5b600080fd5b600080fd5b60008083601f840112611b8757611b86611b62565b5b8235905067ffffffffffffffff811115611ba457611ba3611b67565b5b602083019150836001820283011115611bc057611bbf611b6c565b5b9250929050565b60008115159050919050565b611bdc81611bc7565b8114611be757600080fd5b50565b600081359050611bf981611bd3565b92915050565b60008060008060008060008060c0898b031215611c1f57611c1e611ae2565b5b6000611c2d8b828c01611b0d565b985050602089013567ffffffffffffffff811115611c4e57611c4d611ae7565b5b611c5a8b828c01611b71565b9750975050604089013567ffffffffffffffff811115611c7d57611c7c611ae7565b5b611c898b828c01611b71565b95509550506060611c9c8b828c01611bea565b9350506080611cad8b828c01611b0d565b92505060a0611cbe8b828c01611b0d565b9150509295985092959890939650565b600081519050919050565b600082825260208201905092915050565b60005b83811015611d08578082015181840152602081019050611ced565b83811115611d17576000848401525b50505050565b6000601f19601f8301169050919050565b6000611d3982611cce565b611d438185611cd9565b9350611d53818560208601611cea565b611d5c81611d1d565b840191505092915050565b60006020820190508181036000830152611d818184611d2e565b905092915050565b600073ffffffffffffffffffffffffffffffffffffffff82169050919050565b6000611db482611d89565b9050919050565b611dc481611da9565b8114611dcf57600080fd5b50565b600081359050611de181611dbb565b92915050565b60008060408385031215611dfe57611dfd611ae2565b5b6000611e0c85828601611dd2565b9250506020611e1d85828601611b0d565b9150509250929050565b611e3081611aec565b82525050565b6000602082019050611e4b6000830184611e27565b92915050565b600060208284031215611e6757611e66611ae2565b5b6000611e7584828501611b0d565b91505092915050565b611e8781611da9565b82525050565b6000602082019050611ea26000830184611e7e565b92915050565b611eb181611bc7565b82525050565b600060e082019050611ecc600083018a611e7e565b8181036020830152611ede8189611d2e565b90508181036040830152611ef28188611d2e565b9050611f016060830187611ea8565b611f0e6080830186611e27565b611f1b60a0830185611e27565b611f2860c0830184611e27565b98975050505050505050565b600080600060408486031215611f4d57611f4c611ae2565b5b6000611f5b86828701611b0d565b935050602084013567ffffffffffffffff811115611f7c57611f7b611ae7565b5b611f8886828701611b71565b92509250509250925092565b60008083601f840112611faa57611fa9611b62565b5b8235905067ffffffffffffffff811115611fc757611fc6611b67565b5b602083019150836020820283011115611fe357611fe2611b6c565b5b9250929050565b6000806020838503121561200157612000611ae2565b5b600083013567ffffffffffffffff81111561201f5761201e611ae7565b5b61202b85828601611f94565b92509250509250929050565b600080fd5b7f4e487b7100000000000000000000000000000000000000000000000000000000600052604160045260246000fd5b61207482611d1d565b810181811067ffffffffffffffff821117156120935761209261203c565b5b80604052505050565b60006120a6611ad8565b90506120b2828261206b565b919050565b600067ffffffffffffffff8211156120d2576120d161203c565b5b6120db82611d1d565b9050602081019050919050565b82818337600083830152505050565b600061210a612105846120b7565b61209c565b90508281526020810184848401111561212657612125612037565b5b6121318482856120e8565b509392505050565b600082601f83011261214e5761214d611b62565b5b813561215e8482602086016120f7565b91505092915050565b600080600080600060a0868803121561218357612182611ae2565b5b600086013567ffffffffffffffff8111156121a1576121a0611ae7565b5b6121ad88828901612139565b955050602086013567ffffffffffffffff8111156121ce576121cd611ae7565b5b6121da88828901612139565b94505060406121eb88828901611bea565b93505060606121fc88828901611b0d565b925050608061220d88828901611b0d565b9150509295509295909350565b600060208201905061222f6000830184611ea8565b92915050565b60006020828403121561224b5761224a611ae2565b5b600061225984828501611dd2565b91505092915050565b7f53656e646572206973206e656974686572207468652063726561746f72206e6f60008201527f742074686520617070726f766564206f6e6520666f722074686520776172726160208201527f6e74792100000000000000000000000000000000000000000000000000000000604082015250565b60006122e4604483611cd9565b91506122ef82612262565b606082019050919050565b60006020820190508181036000830152612313816122d7565b9050919050565b7f4e487b7100000000000000000000000000000000000000000000000000000000600052602260045260246000fd5b6000600282049050600182168061236157607f821691505b602082108114156123755761237461231a565b5b50919050565b7f53656e646572206973206e6f742063726561746f72206f66207468652077617260008201527f72616e7479210000000000000000000000000000000000000000000000000000602082015250565b60006123d7602683611cd9565b91506123e28261237b565b604082019050919050565b60006020820190508181036000830152612406816123ca565b9050919050565b60006124198385611cd9565b93506124268385846120e8565b61242f83611d1d565b840190509392505050565b6000602082019050818103600083015261245581848661240d565b90509392505050565b7f5472616e736665727320756e617661696c61626c652100000000000000000000600082015250565b6000612494601683611cd9565b915061249f8261245e565b602082019050919050565b600060208201905081810360008301526124c381612487565b9050919050565b7f4e487b7100000000000000000000000000000000000000000000000000000000600052603260045260246000fd5b600080fd5b600080fd5b600080fd5b60008235600160a003833603038112612524576125236124f9565b5b80830191505092915050565b6000808335600160200384360303811261254d5761254c6124f9565b5b80840192508235915067ffffffffffffffff82111561256f5761256e6124fe565b5b60208301925060018202360383131561258b5761258a612503565b5b509250929050565b6000602082840312156125a9576125a8611ae2565b5b60006125b784828501611bea565b91505092915050565b7f4e487b7100000000000000000000000000000000000000000000000000000000600052601160045260246000fd5b60006125fa82611aec565b91507fffffffffffffffffffffffffffffffffffffffffffffffffffffffffffffffff82141561262d5761262c6125c0565b5b600182019050919050565b7f546f6b656e4964206973206e6f6e2d6578697374616e74210000000000000000600082015250565b600061266e601883611cd9565b915061267982612638565b602082019050919050565b6000602082019050818103600083015261269d81612661565b9050919050565b60006126af82611aec565b91506126ba83611aec565b9250828210156126cd576126cc6125c0565b5b828203905092915050565b60006126e382611aec565b91506126ee83611aec565b9250817fffffffffffffffffffffffffffffffffffffffffffffffffffffffffffffffff0483118215151615612727576127266125c0565b5b828202905092915050565b600061273d82611aec565b915061274883611aec565b9250827fffffffffffffffffffffffffffffffffffffffffffffffffffffffffffffffff0382111561277d5761277c6125c0565b5b82820190509291505056fea26469706673582212203db0bf1fff13a0cb23f5c7c0ba791bc49904a39352464c8174391eba47b0740c64736f6c63430008090033",
  "linkReferences": {},
  "deployedLinkReferences": {}
}